:020000040800F2
:1000000048570020E9020008BB1E00082B1D00080D
:10001000AD1E000827060008692000080000000047
:10002000000000000000000000000000290200089D
:100030001D0900080000000085020008C51E000818
:100040000303000803030008030300080303000878
:100050000303000803030008030300080303000868
:100060000303000803030008030300080303000858
:100070000303000803030008030300080303000848
:100080000303000803030008030300084D060008EB
:100090002906000835060008410600080303000889
:1000A00003030008891F0008030300080303000876
:1000B0000303000803030008030300080303000808
:1000C00003030008030300080303000803030008F8
:1000D00003030008030300080303000803030008E8
:1000E00003030008030300080303000803030008D8
:1000F00003030008030300080303000803030008C8
:1001000003030008030300080303000803030008B7
:1001100003030008030300080303000803030008A7
:100120000303000803030008030300080303000897
:100130000303000800000000000000007D06000826
:100140005906000865060008710600080303000848
:100150000303000803030008030300080303000867
:100160000303000803030008030300080303000857
:100170000303000803030008000000000000000063
:10018000030300080303000800F002F800F03CF845
:100190000AA090E8000C82448344AAF10107DA45E2
:1001A00001D100F031F8AFF2090EBAE80F0013F0F8
:1001B000010F18BFFB1A43F001031847C03C0000B1
:1001C000E03C0000103A24BF78C878C1FAD8520742
:1001D00024BF30C830C144BF04680C6070470000C1
:1001E0000023002400250026103A28BF78C1FBD840
:1001F000520728BF30C148BF0B6070471FB503F0DE
:10020000CDFD1FBD10B510BD00F0D0F91146FFF7B0
:10021000F5FF01F0AFFF00F0EEF903B4FFF7F2FFD6
:1002200003BC00F0F5F900002C4B19680868B0E831
:10023000F04F80F30988BFF36F8F4FF0000080F319
:10024000118870470000000008480068006880F3CB
:1002500008884FF0000080F3148862B661B6BFF3DF
:100260004F8FBFF36F8F00DF00BF00BF08ED00E0CE
:10027000DFF80C00016841F470010160704700BFB5
:1002800088ED00E0EFF30980BFF36F8F134B1A681E
:100290001EF0100F08BF20ED108A20E9F04F10600B
:1002A00009B44FF0500080F31188BFF34F8FBFF3B4
:1002B0006F8F03F023F84FF0000080F3118809BC22
:1002C00019680868B0E8F04F1EF0100F08BFB0ECD6
:1002D000108A80F30988BFF36F8F704724000020D5
:1002E000EFF3058070470000094880470948004740
:1002F000FEE7FEE7FEE7FEE7FEE7FEE7FEE7FEE7D6
:10030000FEE7FEE704480549054A064B7047000032
:10031000791F000889010008484B00204857002039
:10032000485300204853002053EA020C00F0698033
:100330002DE9F04B4FF00006002B1FBFB3FA83F5F9
:1003400003FA05F424FA05F65E4012BF1643B2FA2A
:1003500082F502FA05F4C5F120051EBF22FA05FC5C
:1003600044EA0C04203556EA044C4FEA144418BF02
:10037000641C4FF000084FF00009904271EB030C31
:1003800039D3002919BFB1FA81F701FA07F6B0FA9B
:1003900080F700FA07F6C7F120071EBF20FA07FC16
:1003A00046EA0C062037B6FBF4FCA7EB0507103F26
:1003B00007F01F0BCBF120060CFA0BFB2CFA06F60C
:1003C00044BFB3460026202FA4BF5E464FF0000B6B
:1003D0005BEA060C08BF4FF0010B19EB0B09ABFBF6
:1003E000027C48EB0608C01B06FB02CC0BFB03CCCF
:1003F00071EB0C01C1E70B46024641464846BDE899
:10040000F08B13B54FF000004FF00001AFF3008008
:10041000BDE81C407047032A40F2308010F0030C06
:1004200000F0158011F8013BBCF1020F624498BF47
:1004300011F801CB00F8013B38BF11F8013BA2F1E4
:10044000040298BF00F801CB38BF00F8013B11F05F
:10045000030300F05780083AC0F0088051F8043BCD
:10046000083A51F804CBA0E80810F5E7121D5CBF6C
:1004700051F8043B40F8043BAFF30080D20724BF9F
:1004800011F8013B11F801CB48BF11F8012B24BF33
:1004900000F8013B00F801CB48BF00F8012B704782
:1004A00002F0FF0343EA032242EA024200F05EB890
:1004B0004FF0000200B5134694469646203922BFFD
:1004C000A0E80C50A0E80C50B1F12001BFF4F7AF48
:1004D000090728BFA0E80C5048BF0CC05DF804EB2A
:1004E000890028BF40F8042B08BF704748BF20F898
:1004F000022B11F0804F18BF00F8012B7047704796
:100500007047704710B5203AC0F00B80B1E8185022
:10051000203AA0E81850B1E81850A0E81850BFF4ED
:10052000F5AF5FEA027C24BFB1E81850A0E818508C
:1005300044BF18C918C0BDE810405FEA827C24BFE0
:1005400051F8043B40F8043B08BF7047D20728BF6E
:1005500031F8023B48BF11F8012B28BF20F8023BBD
:1005600048BF00F8012B70474FF000020429C0F08B
:10057000128010F0030C3FF49DAFCCF1040CBCF1E1
:10058000020F18BF00F8012BA8BF20F8022BA1EB27
:100590000C01FFF78FBF5FEAC17C24BF00F8012B7D
:1005A00000F8012B48BF00F8012B7047754600F09A
:1005B0002BF8AE4605006946534620F007008546F5
:1005C00018B020B5FFF79EFEBDE820404FF00006B2
:1005D0004FF000074FF000084FF0000B21F007012B
:1005E000AC46ACE8C009ACE8C009ACE8C009ACE86E
:1005F000C0098D46704710B50446AFF30080204611
:10060000BDE81040FFF709BE00487047E84A0020E7
:1006100001491820ABBEFEE726000200704701200A
:1006200001F0CEFDFBE7FEE7014800F00FBB000044
:10063000A4000020014800F009BB0000A400002035
:10064000014800F003BB0000A4000020014800F0B6
:10065000FDBA0000A4000020014800F0F7BA000035
:10066000CC000020014800F0F1BA0000CC000020CE
:10067000014800F0EBBA0000CC000020014800F077
:10068000E5BA0000CC00002000B58BB0282101A8FD
:10069000FFF70EFF0E21069100200790012208921D
:1006A0000190029003900490059009920A9101A98B
:1006B000054800F0B9F9044800F041FD0221024864
:1006C00000F02FF90BB000BDCC0000202DE9F04167
:1006D0000025214F002605EBC50000EB400007EB8D
:1006E000C004A08E401C80B2A086C82803D9012077
:1006F00084F82500A670204602F0B6FB607880B131
:10070000E07880B1012810D002281DD003281FD026
:100710002687204602F0C2FB6D1C002DDBD0BDE811
:10072000F0812687F5E72687F3E7B4F93810B4F9A6
:100730000E00814206DCB4F938104042814201DBF0
:10074000B4F938002087E4E7204602F053FBE0E7E5
:10075000204601F067FEDCE73C0100202DE9F05F58
:100760002DED0A8B00250026B7EE009A41F6FF79A1
:1007700042F6E06ADFF89880DFED269ADFED268A00
:100780009FED268A9FED26AADFED26AA9FED26BAC9
:10079000DFED26BA9FED26CA012742F2107B05EB5A
:1007A000C50000EB400008EBC004681C20706670B8
:1007B000A670E67084ED019AC4ED029AA4F80C903C
:1007C000A4F80EA0A774A4F81CB0C4ED058A84EDAB
:1007D000068A84F824700021B0EE4A1AF0EE6A0A04
:1007E000B0EE4B0A04F1800001F0F2FD0121B0EE01
:1007F0006B1AF0EE4C0AB1EE060A04F1AC0001F0FF
:10080000E7FD6D1C002DCAD0BDEC0A8BBDE8F09F42
:100810003C0100209A99994100008743000087C35A
:10082000000000000AD7A33B295C8F3D0AD7233C78
:100830009A99993E0FB407990098A0F201200828D0
:1008400043D20098C0B201283FD8401E00EBC00040
:100850001F4A00EB400002EBC0004A780B781830CA
:1008600042EA03228287CA788B7842EA03224287CF
:100870004A790B7942EA03220287897980F84C1081
:10088000B0F93810DFED130A00EE101AB8EEC00A06
:1008900080EE201A80ED121A10ED050A50ED040AC0
:1008A000B0F93A1060EE200A00EE101AB8EEC00A55
:1008B00080EE201ABDEEC10A10EE101A4187002109
:1008C0008183183804B001F0E1BB04B07047000028
:1008D0003C01002000007A4400280AD0012808D8F2
:1008E000401E00EBC000034A00EB400002EBC000DA
:1008F000817070473C01002000280BD0012809D8E6
:10090000401E00EBC000044900EB400001EBC000BA
:1009100080ED110A704700003C010020704772B65C
:10092000FEE790F82020012A07D0022A05D0416A6C
:1009300041F48021416201207047006842690A4306
:10094000426100207047F0B590F820500468A46818
:10095000012D07D0022D05D0416A41F4802141626A
:100960000120F0BD04F0806504F00066354301D13C
:10097000E50053D5C4F301640125A5401D608B68D3
:100980004FF4C0759BB1CE6805EB041733434E6836
:1009900043EAC6030668F3514FF4C273076803EBDA
:1009A00004130E69FE50097D012909D00DE00E885F
:1009B000CB6805EB041743EA46530668F351EBE7AF
:1009C0000168CE5846F48076CE501179D3795679A5
:1009D00041EA036193791B0443EA062319434FF468
:1009E000C676036806EB041699511178D37841EA6C
:1009F0000361937852781B0443EA022211434FF4B7
:100A0000C473026803EB0413D150006805EB0411B2
:100A1000425842F0010242500020F0BD416A41F4C8
:100A2000001141620120F0BD10B590F82020012A8C
:100A300007D0022A05D0416A41F480214162012099
:100A400010BD3C4800F50070026842F001020260EF
:100A5000026822F47C52026002684B6A42EA032276
:100A600002600A7D02F01F0301229A40C36993438A
:100A7000C361A0F50070CB69B3B9D0F80C329343D1
:100A8000C0F80C328C894B6864F31F434C6900EB4F
:100A9000C404C4F840320C890B6864F31F434C69EA
:100AA00000EBC404C4F84432CB69012B16D1D0F852
:100AB0000C321343C0F80C320C884B6864F31F43AC
:100AC0004C6900EBC404C4F840320C89CB6864F371
:100AD0001F434C6900EBC404C4F844328B697BB1FA
:100AE000D0F804321343C0F804320B6973B1D0F864
:100AF00014321343C0F81432096A01290CD010E0F3
:100B0000D0F804329343C0F80432EEE7D0F8143240
:100B10009343C0F81432EFE7D0F81C121143C0F829
:100B20001C12D0F8001221F00101C0F800120020C0
:100B300010BD000000640040704770B590F8204080
:100B4000012C07D0022C05D0416A41F4802141627A
:100B5000012070BD21B104682469A4072AD003E0F4
:100B60000468E468A4071FD04FF4D874056804EB48
:100B700001142D5905F0040595600DB305682D5934
:100B8000ED08556005682C5904F00204D4604FF458
:100B9000DA74056804EB01142E5906F00F06082ECE
:100BA00013D30825156114E0416A41F40011416234
:100BB000012070BD416A41F400114162012070BD05
:100BC00005682D596D0D1560DCE72D5905F00F05F1
:100BD000156105682D59C5F30725956105682C59E0
:100BE000240C54614FF4DC72046802EB0112A45827
:100BF0001C700468A458240A5C700468A458240C6F
:100C00009C700468A258120EDA704FF4DE72046809
:100C100002EB0112A4581C710468A458240A5C71E8
:100C20000468A458240C9C710468A258120EDA714E
:100C300031B10068016941F020010161002070BDFF
:100C40000068C16841F02001C160F7E72DE9F05F5D
:100C50000546002428684669D0F804908768D0F8D3
:100C60000CA0D0F810B0D0F81880F10748D0F907E0
:100C700014D001218160B80703D5284600F08CFA12
:100C80000CE0780702D54FF4006407E0380702D57E
:100C90004FF4805402E0284600F07DFAF80516D59E
:100CA00029684FF480708860B80503D5284600F0A5
:100CB00075FA0CE0780502D544F4005407E03805D5
:100CC00002D544F4804402E0284600F066FAF803B6
:100CD00016D529684FF480308860B80303D52846BC
:100CE00000F05EFA0CE0780302D544F4004407E01B
:100CF000380302D544F4803402E0284600F04FFA6D
:100D0000300707D55FEACA6004D544F40074296847
:100D10001020C86070074FF0080707D55FEA0A7017
:100D200004D52868C760284600F0EAF9B00706D560
:100D30002868C068800702D0284600F0E3F97006F2
:100D400007D55FEACB6004D544F48064296810209D
:100D50000861B00607D55FEA0B7004D52868076103
:100D6000284600F0E9F9F00606D5286800698007F2
:100D700002D0284600F0E1F9B00308D55FEAC96067
:100D800005D5296810204860284600F0D7F9F003FF
:100D900007D55FEA097004D528684760284600F047
:100DA00000FA300446D55FEA497040D5F00504D515
:100DB0005FEAC87001D044F00104B00504D55FEAD1
:100DC000887001D544F00204700504D55FEA4870CC
:100DD00001D544F00404300529D518F0700F26D051
:100DE00008F07000402815D006DC102809D0202813
:100DF0000AD0302816D10AE050280ED0602811D130
:100E00000EE044F008040DE044F010040AE044F061
:100E1000200407E044F0400404E044F0800401E0D2
:100E200044F480742868816921F070018161296827
:100E300004204860002C05D0686A20436862284678
:100E4000FFF77AFEBDE8F09F70B50446002C03D092
:100E500094F8200010B104E0012070BD204600F09D
:100E60009DF82068016841F00101016000F08AFAF4
:100E7000054605260CE000F085FA401B0A2807D934
:100E8000606A40F40030606284F82060012070BD28
:100E900020684068C007EED02068016821F0020198
:100EA000016000F06FFA05460CE000F06BFA401BA1
:100EB0000A2807D9606A40F40030606284F8206034
:100EC000012070BD206840688007EED4207E012894
:100ED0003FD02068016821F080010160607E012818
:100EE0003DD02068016821F040010160A07E01280A
:100EF0003BD02068016821F020010160E07E0128DC
:100F000039D02068016841F010010160207F01287C
:100F100037D02068016821F008010160607F012856
:100F200035D02068016821F004010160D4E9020194
:100F30000843D4E90412114308436168491E084379
:100F40002168C86100206062012084F82000002030
:100F500070BD2068016841F080010160BEE7206833
:100F6000016841F040010160C0E72068016841F07C
:100F700020010160C2E72068016821F010010160D2
:100F8000C4E72068016841F008010160C6E72068F5
:100F9000016841F004010160C8E700002DE9F0415B
:100FA00086B00446142101A8FFF782FA4F4B504A3D
:100FB000DFF83481186821684D4C02260327401C55
:100FC000103200254FF0090C414541D1186001282D
:100FD00007D1106840F000701060106800F00070D9
:100FE0000090206840F001002060206800F00100BF
:100FF00000904FF4C0500190029603950497CDF8ED
:1010000014C001A93B4800F0CDF8002205211320AF
:1010100000F050FA132000F03FFA002205211420BE
:1010200000F048FA142000F037FA002205211520BC
:1010300000F040FA152000F02FFA002205211620BA
:1010400000F038FA162000F027FA06B0BDE8F0816B
:10105000DFF8A4804145F8D1116841F0806111604A
:10106000116801F0806100911860012807D11068B3
:1010700040F000701060106800F000700090206870
:1010800040F002002060206800F002000090602024
:101090000190029603950497CDF814C001A9174852
:1010A00000F080F8002205213F2000F003FA3F20E5
:1010B00000F0F2F900220521402000F0FBF9402069
:1010C00000F0EAF900220521412000F0F3F9412067
:1010D00000F0E2F900220521422000F0EBF9422065
:1010E00000F0DAF9B1E700000064004010000020D1
:1010F0003038024000000240006800400004024016
:101100007047000000B58DB00A4A016891420ED1C7
:1011100004AB06AA0021FFF710FD04A803900AA85B
:1011200007C88DE8070006A80FC8FFF783FB0DB0BE
:1011300000BD00000068004070477047704770B500
:10114000044694F82000012805D0606A40F400208D
:101150006062012070BD022084F8200020680168D0
:1011600021F00101016000F00DF905460DE000F0ED
:1011700009F9401B0A2808D9606A40F4003060620F
:10118000052084F82000012070BD20684068C00759
:10119000EDD1606270BD704770477047704770470F
:1011A000704770472DE9F84F0022DFF89C914FF00F
:1011B000010803274FF00F0C09F1040AA9F1040BF1
:1011C00008FA02F50B682B40AB426ED10C7904F0A3
:1011D0000304012C01D0022C15D18668540007FAB3
:1011E00004FE26EA0E06D1F80CE00EFA04FE4EEAE2
:1011F000060EC0F808E04468AC430D79C5F300154D
:101200009540254345600C79E443A40708D0C568A0
:10121000540007FA04F6B5438E68A6402E43C66014
:101220000C7904F00304022C11D1D40800EB8406DD
:10123000356A5407E40E0CFA04FE25EA0E05D1F8CF
:1012400010E00EFA04FE4EEA050EC6F820E005682E
:10125000540007FA04F6B5430E7906F00306A640DB
:101260002E4306604C6814F4403F67D0374C256825
:1012700045F480452560246804F480440094344C8F
:1012800022F003052E19D6F8085894074FEA147E69
:101290000CFA0EF4A5432F4CA04201D1002424E007
:1012A0002D4CA04202D101241FE047E02B4CA0426C
:1012B00001D1022419E02A4CA04201D1032414E0F8
:1012C000284CA04201D104240FE0274CA04201D1B8
:1012D00005240AE0254CA04201D1062405E0244C57
:1012E000A04201D1072400E0082404FA0EF42C43A4
:1012F000C6F80848D9F800409C434D68ED0200D577
:101300001C43C9F80040DAF800409C434D68AD0228
:1013100000D51C43CAF80040DBF800409C434D68F0
:10132000AD0300D51C43CBF80040074D083D2C68A9
:101330009C434E68F60300D51C432C60521C102AB7
:10134000FFF43EAFBDE8F88F083C0140443802404E
:10135000003001400000024000040240000802404A
:10136000000C02400010024000140240001802402D
:10137000001C0240002A01D081617047090481618C
:10138000704700000148806870470000140000208A
:10139000024881680278114481607047140000207F
:1013A00010B50B48016841F400710160016841F417
:1013B00080610160016841F480710160032000F0E8
:1013C00099F80F2000F006F800F04AF8002010BD50
:1013D000003C024030B587B0054600241B48016838
:1013E00041F001010160006800F00100009001A9D6
:1013F00002A800F037F900F059F940001449B0FB99
:10140000F1F1491E1448134A026040F2E732C2600B
:10141000416004618460846100F070FB044694B90B
:101420000D4800F091FB04466CB9192000F034F827
:10143000102D07D200222946192000F03BF807485A
:10144000056000E0012407B0204630BD443802406A
:1014500040420F0000000140F4000020180000206E
:1014600082B00C48016841F480410160006800F4DA
:10147000804001900748001F016841F080510160E1
:10148000006800F08050019000220F21901E02B0F1
:1014900000F010B844380240002809DB00F01F02B9
:1014A000012191404009800000F1E020C0F80011C6
:1014B00070470000F0B40D460D4B1B68C3F30223C8
:1014C000C3F10704042C00D90424191D072901D2F3
:1014D000002300E0DB1E012606FA04F1491E294024
:1014E00099409E40761E16403143F0BC00F0BDBDD1
:1014F0000CED00E000F00701054A10684FF6FF030D
:10150000184040EA0120034908431060704700007A
:101510000CED00E00000FA052DE9F04704460D4609
:10152000002C13D0DFF82891D9F80000EFB200F0BA
:101530000700A8420CD289F80070D9F8000000F02A
:101540000700A84204D00120BDE8F0870120FBE796
:101550002068404E810712D5400703D5306840F41B
:10156000E05030602078000703D5306840F46040D8
:1015700030603068A16820F0F000084330602078C7
:10158000C00731D0334960680839012808D00228E3
:101590000BD0032809D0096889070BD40120D3E7B1
:1015A0000968890306D40120CEE70968890101D4BE
:1015B0000120C9E7316821F0030101433160FFF7E1
:1015C000E1FE804641F2883A07E0FFF7DBFEA0EB40
:1015D0000800504501D90320B6E73068616800F083
:1015E0000C00B0EB810FF0D1D9F8000000F007003B
:1015F000A84209D989F80070D9F8000000F0070066
:10160000A84201D001209FE72078400705D5306827
:10161000E16820F4E050084330602078000706D5E8
:101620003068216920F4604040EAC100306000F079
:101630004DF83168084AC1F30311515CC8400749AD
:10164000086007480068FFF7C5FE00207CE700003F
:10165000003C024008380240383E000820000020CC
:10166000180000200F2202600B4A136803F00303E6
:101670004360136803F0F0038360136803F4E053DE
:10168000C360126802F46042D20802610348006835
:1016900000F007000860704708380240003C024034
:1016A00001480068704700002000002000B5FFF7E7
:1016B000F7FF04490968044AC1F34231515CC8404C
:1016C00000BD000008380240483E000810B5174829
:1016D000006810F00C01164816D0164B042912D0E1
:1016E000082911D1114C241F216801F03F02216803
:1016F00049020AD52068C0F38810A0FB030100232B
:10170000FEF712FE09E0184610BD21680023C1F360
:101710008811A1FB0001FEF707FE2168C1F301411A
:10172000491C4900B0FBF1F010BD00000838024030
:101730000024F40040787D012DE9F84F0446002C88
:1017400013D02078DFF8A083C007A8F1040556D095
:1017500008F104000168C1F3810101290CD000687F
:10176000C0F38100022803D00DE00120BDE8F88F0E
:10177000D8F80000400206D5286880033FD560688D
:1017800070BB0120F2E76068B0F5803F10D0B0F583
:10179000A02F12D0286820F480302860286820F418
:1017A000802028606068E0B1FFF7ECFD064614E099
:1017B000286840F480302860F4E7286840F48020EE
:1017C0002860286840F480302860EBE7FFF7DAFDF6
:1017D000801B642801D90320C8E728688003F5D559
:1017E0000DE0FFF7CFFD064606E0FFF7CBFD801BBF
:1017F000642801D90320B9E728688003F5D420784C
:10180000BA4F80074FF0000948D5B748001D01685E
:1018100011F00C0F08D00068C0F38100022813D12A
:10182000D8F8000040020FD42868800704D5E0688B
:10183000012801D0012099E72868216920F0F800EB
:1018400040EAC100286029E0E068B8B101203860B2
:10185000FFF798FD064606E0FFF794FD801B02287F
:1018600001D9032082E728688007F5D52868216917
:1018700020F0F80040EAC10028600FE0C7F80090AF
:10188000FFF780FD064606E0FFF77CFD801B02287F
:1018900001D903206AE728688007F5D4207800077B
:1018A00029D5DFF844A2924861690AF1700A89B12A
:1018B00001210160FFF766FD064606E0FFF762FDC5
:1018C000801B022801D9032050E7DAF800008007C6
:1018D000F4D510E0C0F80090FFF754FD064606E08E
:1018E000FFF750FD801B022801D903203EE7DAF8FC
:1018F00000008007F4D42078400778D54FF0000A24
:1019000079483C300068C0000BD477483C3001680F
:1019100041F080510160006800F0805000904FF06D
:10192000010ADFF8D0B1DBF80000C00514D4DBF801
:10193000000040F48070CBF80000FFF723FD06465E
:1019400006E0FFF71FFD801B022801D903200DE7E9
:10195000DBF80000C005F4D5634EA0686C360128A2
:101960000FD0052812D0306820F0010030603068B8
:1019700020F004003060A068F8B1FFF703FD834653
:1019800017E0306840F001003060F4E7306840F064
:1019900004003060306840F001003060EBE7FFF792
:1019A000F1FCA0EB0B0141F28830814201D9032008
:1019B000DCE630688007F2D510E0FFF7E3FC8346F1
:1019C00009E0FFF7DFFCA0EB0B0141F28830814218
:1019D00001D90320CAE630688007F2D4BAF1010FBA
:1019E00005D141483C30016821F080510160A06977
:1019F000C0B33D49091D09684FF0FF36C1F38101AD
:101A0000022946D0022805D0C7F86090FFF7BAFC3B
:101A100004463AE0C7F86090FFF7B4FC814607E05F
:101A2000FFF7B0FCA0EB0900022801D903209DE6D6
:101A300028688001F4D4D4E907010843616AA26AE6
:101A4000890106EB520241EA0241084394F82C1046
:101A500040EA0160C8F8000001203866FFF792FCF8
:101A6000044607E03DE0FFF78DFC001B022801D98A
:101A700003207BE628688001F5D532E0FFF782FC81
:101A8000001B022801D9032070E628688001F5D4E4
:101A900027E0012823D0D8F80000E26900F4800193
:101AA00091421AD1226A00F03F01914215D147F6C6
:101AB000C071626A0140B1EB821F0ED1A26A00F4CC
:101AC000403106EB5202B1EB024F06D194F82C10D4
:101AD00000F07060B0EB016F03D0012046E60120FA
:101AE00044E6002042E6000004380240000047427D
:101AF000800E4742007000407047704710B50446A2
:101B0000002C03D094F83D0010B107E0012010BD77
:101B1000002084F83C00204600F015F8022084F8EC
:101B20003D00211D206800F035FA01203D3460722F
:101B30006070A070E07020716071A071E07120721F
:101B40002070002010BD704790F83D10012901D091
:101B500001207047022180F83D100168CA6842F0F8
:101B60000102CA6000681449884214D0B0F1804F65
:101B700011D0124988420ED0114988420BD0114928
:101B8000884208D01049884205D01049884202D0C6
:101B90000F49884209D1816801F00701062908D060
:101BA000016841F00101016003E0016841F00101B9
:101BB0000160002070470000000001400004004068
:101BC00000080040000C00400004014000400140BB
:101BD0000018004070472DE9F04104462068C568B0
:101BE00006694FF00007B10714D5A90712D5F91EF1
:101BF00001610120207720688069800703D020469A
:101C0000FFF7E8FF05E0204600F081F8204600F0ED
:101C10007FF82777700717D5680715D521686FF00B
:101C200004000861022020772068806910F4407F5A
:101C300003D02046FFF7CEFF05E0204600F067F80E
:101C4000204600F065F82777300716D5280714D509
:101C500021686FF008000861042020772068C069BF
:101C6000800703D02046FFF7B5FF05E0204600F0CF
:101C70004EF8204600F04CF82777F00617D5E80616
:101C800015D521686FF010000861082020772068C2
:101C9000C06910F4407F03D02046FFF79BFF05E0AA
:101CA000204600F034F8204600F032F82777F0079D
:101CB00008D0E80706D021686FF0010008612046CF
:101CC00000F028F8300608D5280606D521686FF000
:101CD000800008612046FFF70FFF700608D56806F0
:101CE00006D521686FF040000861204600F01CF81E
:101CF000B0060AD5A80608D521686FF02000086153
:101D00002046BDE8F041FFF7F8BEBDE8F08170471E
:101D10007047000000680349884201D1FFF738BBD3
:101D200070470000000001407047FEE7012000F00E
:101D300047FAFBE710B50F480D49016003214160E8
:101D400000218160C1604FF4002202614FF4401213
:101D50004261017641768176C17601774177FFF75E
:101D600073F8002803D0BDE81040FEF7D8BD10BDC1
:101D700000640040A400002010B50F480D49016028
:101D80000321416000218160C1604FF400220261A3
:101D90004FF440124261017641768176C176017737
:101DA0004177FFF751F8002803D0BDE81040FEF757
:101DB000B6BD10BD00680040CC00002010B50E4A32
:101DC00000210E4800F03AFA0D4C20600A4A00212A
:101DD00024320C4800F032FA6060074A0021483291
:101DE000094800F02BFAA060034A00216C32074832
:101DF00000F024FAE06010BDA83D00082D1D000889
:101E000000000020AF1E0008BD1E00081F060008CD
:101E10002DE9F04186B0142101A8FEF749FB00240A
:101E20001F48016841F080010160016801F08001F4
:101E30000091016841F001010160016801F00101B8
:101E40000091016841F002010160006800F00200A9
:101E50000090DFF850804FF49876002231464046DB
:101E6000FFF788FA104F4FF4805500222946384674
:101E7000FFF780FA0196012602960220039004944F
:101E800001A94046FFF78EF9019502960394049448
:101E900001A93846FFF786F906B0BDE8F0810000D9
:101EA000303802400000024000040240FEE7FEF726
:101EB0000DFC012000F084F9F9E7FEE7012000F0B5
:101EC0007FF9FBE710B54FF0E020006901F0A4FDB9
:101ED000012803D0BDE8104001F0BEBA10BD0000DB
:101EE00030B593B0302107A8FEF7E2FA142102A81A
:101EF000FEF7DEFA00251E48016841F080510160BE
:101F0000006800F0805001901A48016841F4804157
:101F10000160006800F480400190012007900004F7
:101F2000089002240D9480010E9019200F904FF418
:101F3000A870109011940420129007A8FFF7FCFBE2
:101F400008B1FEF7ECFC0F200290039404954FF4C7
:101F5000A05005904FF480500690052102A8FFF78D
:101F6000DBFA002801D0FEF7DAFC13B030BD000028
:101F700040380240007000400248016841F470019E
:101F80000160704788ED00E00148FFF724BE0000C3
:101F9000F40000202DE9F0410268284D284E294F19
:101FA000DFF8A4C0294B4FF08048A84209D0404533
:101FB00007D0B04205D0B84203D0604501D0984266
:101FC00003D122F070044A682243A8421BD0404546
:101FD00019D0B04217D0B84215D0604513D09842FE
:101FE00011D01B4CA0420ED01A4CA0420BD01A4C60
:101FF000A04208D0194CA04205D0194CA04202D0F2
:10200000184CA04203D122F44074CA6822434C69A0
:1020100022F0800222438C68C4620C688462A84269
:1020200001D0984201D109690163016841F00401BE
:102030000160012141610260BDE8F08100000140C2
:102040000004004000080040000C00400004014073
:102050000040014000440140004801400018004099
:10206000001C004000200040FEE70907090E002880
:1020700004DB00F1E02080F80014704700F00F004E
:1020800000F1E02080F8141D7047000030F8541F64
:10209000028B891A4180B0F9022030F8481C54386C
:1020A000B2EB510F06DDB0F85620521A521EA0F8BE
:1020B00056200BE0B0F956204B085B429A4205DAF5
:1020C000B0F856200A44521CA0F85620826DB0F990
:1020D00056301A44826500EE101AD0ED010A816D67
:1020E000B8EE400A20EE200AD0ED020A60EE200A87
:1020F00000EE101A9FED151AB8EEC00A20EE010A84
:1021000080EE201A80ED171A90F8241039B10021C2
:1021100081659FED0F0A80ED170A80F8241030F8D2
:10212000501F01834188418381888183C188C18395
:102130008168016290ED030A80ED090A90ED040ABE
:1021400080ED0A0A017D80F82C1070470000B4432E
:1021500000000000B4EEE00AF1EE10FA02D2B0EE98
:10216000600A7047B4EEC10AF1EE10FAF9DDB0EE84
:10217000410A7047FFF714F9FFF7B2FEFFF748FE78
:10218000FFF7D8FDFFF7F8FD00F0ACFDFEF7E6FA2B
:10219000FEF77AFA0849012048700321FEF79CFBFC
:1021A0009FED060A0120FEF7A7FB00F017F8FFF7E6
:1021B00005FE00F027F8FEE73C0100200000B442D5
:1021C00010B5EFF30581002902D06FF0050403E09C
:1021D000002408B100F0D4FF204610BDEFF30580C5
:1021E000002802D06FF0050070470548016811B162
:1021F0004FF0FF3070470121016000207047000060
:102200007400002010B5EFF30580002802D06FF0B5
:10221000050010BD07480168012902D04FF0FF30CA
:1022200010BD054A002111700221016001F016F86D
:10223000002010BD740000201FED00E02DE9FF47D5
:102240000B464FF00008CDF80C80EFF3058199BBE9
:1022500090B3802618240025691E72B3176807B151
:102260003D46976907B13C46671E382F02D2177961
:10227000FF0703D0002004B0BDE8F087576907B11D
:10228000BE08D2F808C0BCF1000F0CD0D2F80C90F8
:10229000B9F15C0F07D3D2F81090B9F1000F02D05A
:1022A0000FB101210BE0BCF1000F08D1D76837B99D
:1022B000176927B9002102E01BE0FFE7002101298F
:1022C00001D059B115E0916812690291CDE900423F
:1022D0003246294601F072FB03900AE003A9CDE9DA
:1022E0000041B2B2294601F037FB012801D0CDF8F8
:1022F0000C800398BFE7000010B504462DED028B5B
:1023000094ED000AD4ED010A30EE608A94F82800BA
:10231000002836D094F82900C0B394ED091A94ED42
:10232000050AF1EE410A30EE080AFFF713FF84EDCB
:10233000050AD4ED060A94ED020AF0EE001A38EE12
:10234000601A20EE010A94ED031A01EE080AB0EEBD
:10235000481A00EEE11AD4ED071A31EE211AD4ED35
:10236000041A01EE810AC4ED070A84ED068A94ED91
:10237000081ABDEC028BF1EE410ABDE81040FFF7F0
:10238000E9BEBDEC028B9FED110A10BDFFE794ED95
:10239000091A94ED050AF1EE410A30EE080AFFF73A
:1023A000D9FE84ED050AD4ED030A94ED061A20EE59
:1023B000800AD4ED020A38EE411A00EE880AD4ED04
:1023C000040A00EE810A84ED068AD0E700000000CE
:1023D00080ED020AC0ED030A80ED041A80F829108E
:1023E0009FED060A80ED080A9FED050A80ED090AB7
:1023F000012180F8281000F005B8000000401C46BC
:1024000000007A449FED060A80ED070A80ED060A77
:1024100080ED050A80ED010A80ED000A704700009A
:102420000000000010B5044694ED110AD4ED010A35
:10243000A08920EE200AD4ED020A60EE200A00EE08
:10244000100AB8EE400A20EE800ADFED1F0A80EE87
:10245000201A84ED201AA06D00EE100AB8EEC00A12
:1024600084ED210A04F18000FFF746FF84ED2B0A7A
:10247000B4F95200D4ED010A00EE100AB8EEC00A19
:1024800020EE200AD4ED020A20EE200A84ED2C0A68
:1024900004F1AC00FFF730FFBDEEC00AB4F938100C
:1024A00010EE100A01FA80F02087B4F93810B4F960
:1024B0000E00814206DCB4F938104042814201DB53
:1024C000B4F93800208710BD0000B4432DE9F04175
:1024D00004460F46134EF5683068001D00F01AFDE3
:1024E000601C07D137B13168BDE8F041091D0E48C5
:1024F00000F060BD2C4430684460AC4206D23168C4
:10250000B06B091DBDE8F04100F03CBD3168706B57
:10251000091D00F037FDB06A844200D2B462BDE804
:10252000F0810000240000200407002070B504465C
:1025300000F04CFD1C4DA868401CA860286810B134
:10254000686938B10CE02C60A868012808D100F057
:1025500099F905E02868E16AC06A884200D82C60D1
:10256000686A401C68626064E06A2969884200D930
:1025700028610E4900EB800001EB8000211D00F076
:1025800019FD00F043FD686900280CD02868E16A55
:10259000C06A884207D206494FF080500860BFF3F6
:1025A0004F8FBFF36F8F70BD2400002054020020B6
:1025B00004ED00E038B500F009FD104C2068C8B902
:1025C0000F4800F0D1FC0E48143000F0CDFC0C4850
:1025D000E060143020610A4B0020F03B009003F1D2
:1025E000500210210A2000F04DFF206010B105A11B
:1025F00000F090FDBDE8384000F008BD600000200C
:1026000008080020546D72510000000070B50C4D98
:102610000C4E11E000F0DAFCF068C468201D00F0F8
:1026200079FCA868401EA8606868401E686000F0D9
:10263000EDFC204600F053F868680028EAD170BD30
:1026400024000020F006002030B40B46026C002A63
:102650000CD0C1681144C1608468A14201D30168F3
:10266000C160C16830BC1846FDF7D5BE30BC7047AC
:102670002DE9F041044617460026A56B226C002A7E
:1026800010D0C7B1E068FDF7C6FEE168206C091AFA
:10269000E1602268914202D2A168081AE060022F2C
:1026A00016D017E02068A8B9A06801F02FFA0646F6
:1026B0000020A0600EE06068FDF7ADFE216C606850
:1026C00008446060A168884204D32068606001E02B
:1026D00005B16D1E6D1CA5633046BDE8F08110B5D7
:1026E000044694F8590000280BD0012811D0022884
:1026F00014D0502080F31188BFF34F8FBFF36F8F3A
:10270000FEE7206B00F098FC2046BDE8104000F08A
:1027100093BC2046BDE8104000F08EBC10BD000008
:102720000749CA681168002904D00021016019B165
:10273000002070470121F9E7D06800687047000069
:10274000600000204FF470510F48420706D0C01DB2
:1027500020F007000C49411AC1F570510B4A106076
:10276000002353600144083921F00701183A116031
:102770004B600B600B1A43600160406890605060D2
:102780004FF0004050617047E80E0020900000209C
:10279000074E4FF08054074DFFF738FF306801288F
:1027A000FAD92C60BFF34F8FBFF36F8FF4E70000AF
:1027B0005402002004ED00E070B51D46049C002981
:1027C00009D02260E06321640121204600F090FEE0
:1027D00084F84C5070BD2460F4E72DE9F05F824628
:1027E000DDE90A590C9C0E4617469B46B900A52206
:1027F000206BFDF755FE206B7F1E00EB870020F05D
:102800000707780707D0502080F31188BFF34F8F58
:10281000BFF36F8FFEE74FF0000866B1002022186B
:10282000315C82F83410315C11B1401C1028F6D3B1
:1028300084F8438001E084F83480382D00D33725B4
:10284000E562E564C4F85080201D00F098FB04F1B7
:10285000180000F094FB2461C5F13800A0616462A7
:10286000C4F8548084F858805A465146384600F0DF
:10287000AFFA2060B9F1000F01D0C9F80040BDE8FF
:10288000F09F000070B50024114D04EB840005EBAF
:10289000800000F069FB641C382CF6D30D4800F072
:1028A00063FB0C48143000F05FFB0A48283000F04E
:1028B0005BFB08483C3000F057FB0648503000F006
:1028C00053FB0548034941631431816370BD000027
:1028D00054020020B40600202400002030B5134923
:1028E00000E011460A688242FBD34B685C188442C0
:1028F00003D140681844486008460D6844682318AE
:10290000AB420DD1094B183B1B689A4206D0526866
:10291000224442600A681268026002E0036000E03C
:102920000260814200D0086030BD000090000020AD
:1029300070B50024416000610C4D91420AD8D11A53
:102940008269914201D301240EE0011D286900F043
:1029500019FB09E09A4203D2994201D3012403E012
:10296000011DE86800F00EFB204670BD60000020ED
:1029700010B5044600F02AFBA06B20B1002400F043
:1029800045FB204610BD0124F9E710B5044600F0D0
:102990001DFBA06BE16B884201D1012400E0002403
:1029A00000F034FB204610BDF8B505460E4617482A
:1029B000C068C068C468201D00F0ACFA94F8280014
:1029C000410718D5A0692B46411932462046FFF72A
:1029D000AFFFA0B100200346014600902A462046E2
:1029E00001F0A6F958B9502080F31188BFF34F8F3A
:1029F000BFF36F8FFEE720F0010084F82800216A02
:102A000001B02046BDE8F04008470000600000200B
:102A100030B587B03C4D6EE00398002803DADDE95D
:102A20000420069990470398002864DB059C6069A0
:102A300010B1201D00F06EFA02A800F0AFF80246B7
:102A400003980A2857D2DFE800F00505052D334A20
:102A500005052D3394F8280040F0010084F8280083
:102A60000498A169034601442046FFF761FF68B35B
:102A7000216A2046884794F8280040073BD500206B
:102A800000900498A169002342181946204601F0DD
:102A90004FF9D8B9502080F31188BFF34F8FBFF39F
:102AA0006F8FFEE714F8280F20F00100207022E05D
:102AB00094F8280040F0010084F828000498A061F0
:102AC00028B1811813462046FFF732FF13E050204B
:102AD00080F31188BFF34F8FBFF36F8FFEE794F839
:102AE0002800810703D4204600F0A6FA03E020F076
:102AF000010084F82800002203A9286800F050FE95
:102B0000002889D107B030BD60000020F8B5064626
:102B10000D4600F0EBFB684600F040F804460098D4
:102B200010B101F06DF8F8BD45B9A64206D801F024
:102B300067F821463046FFF737FFF8BD0C481DB156
:102B40000169096891B10025311B2A46006800F02F
:102B5000F3FA01F055F80028EFD106494FF0805004
:102B60000860BFF34F8FBFF36F8FF8BD0125EBE710
:102B70006000002004ED00E00748416B096800296F
:102B800005D0416BC968C9684968816270474FF0D8
:102B9000FF318162704700002400002070B50546B7
:102BA00000F048FF0446074EB068844204D200F0AB
:102BB0000BF80120286001E000202860B460204666
:102BC00070BD000060000020F8B51A4E20E0C0681B
:102BD0000568C468201D00F09DF9216A20468847D9
:102BE00094F82800400713D5A0692844A84206D9C4
:102BF00060602461211DF06800F0C4F908E0002045
:102C00000346014600902A46204601F091F840B163
:102C1000F06801680029DAD1F0683169F16030614B
:102C2000F8BD502080F31188BFF34F8FBFF36F8F33
:102C3000FEE700006000002009484068401C07D003
:102C4000502080F31188BFF34F8FBFF36F8FFEE7E3
:102C5000502080F31188BFF34F8FBFF36F8FFEE7D3
:102C60009800002008B56846FFF75AFD0099FFF765
:102C70004DFFFFF7CDFEF6E72DE9F041044600F0E9
:102C8000A5F994F9455004F1240609E0606A48B1B9
:102C9000304600F079FF08B100F0A2FA6D1E6DB267
:102CA000002DF3DC4FF0FF3684F8456000F0AEF9FC
:102CB00000F08CF994F9445004F1100709E0206900
:102CC00048B1384600F060FF08B100F089FA6D1E87
:102CD0006DB2002DF3DC84F84460BDE8F04100F0F3
:102CE00095B9000000224FF480510148FEF742BB25
:102CF000000402402DE9F0410546002600F0F6FAF6
:102D0000324F386808B9FFF71DFD786905424DD18B
:102D10008DB1083568070ED005F00700C0F1080036
:102D20000544680707D0502080F31188BFF34F8F08
:102D3000BFF36F8FFEE7CDB37868854236D823495D
:102D400018310846046801E0214604466068A8423C
:102D500002D220680028F7D13868844226D00E6855
:102D60000836206808606068411B10290ED9601978
:102D7000420707D0502080F31188BFF34F8FBFF375
:102D80006F8FFEE741606560FFF7A8FD61687868B6
:102D9000401A7860BA68904200D2B86078690143FE
:102DA000616000202060F868401CF86000F028FF97
:102DB000700707D0502080F31188BFF34F8FBFF307
:102DC0006F8FFEE73046BDE8F081000078000020FC
:102DD00024384FF08073036221F00101C16104497E
:102DE000816142606FF0020140F8201970470000D5
:102DF000392C000810B50446B4F93A0000EE100A68
:102E0000F8EEC00A94ED010A20EE801AD4ED020A11
:102E100021EE201A84ED2B1AB4F9520001EE100AAB
:102E2000B8EEC11A21EE000A20EE200A84ED2C0A29
:102E300004F1AC00FFF760FABDEEC00AB4F9381037
:102E400010EE100A01FA80F02087B4F93810B4F9B6
:102E50000E00814206DCB4F938104042814201DBA9
:102E6000B4F93800208710BD10B50446A078E17889
:102E7000884212D0A078E07000202087608794ED0F
:102E8000170A84ED110A04F18000FFF7BBFA04F180
:102E9000AC00BDE81040FFF7B5BA10BD10B588B062
:102EA0000446182102A8FDF703FB002000900190C2
:102EB00004900590082006902178684604290FD8D0
:102EC0004FF400710291218F0A0A2178491E00F8FF
:102ED0001120218F2278521E00EB420041700EE03B
:102EE00040F2FF110291218F0A0A2178491F00F850
:102EF0001120218F2278521F00EB420041700023E5
:102F00006A4602A90248FDF71EFD08B010BD000088
:102F1000CC0000200169D0E901329A60D0E9012398
:102F20005A604A68824201D182684A600022026186
:102F30000868401E0860086870470000034B036083
:102F400003F15C00086080201060704730080020AA
:102F5000044B036003F15C0008604FF48070106064
:102F6000704700008C0A002000F1080141604FF01A
:102F7000FF328260C1600161002101607047002161
:102F80000161704730B50C68621C02D000F1080284
:102F900002E0026904E01A4653681D68A542FAD9A6
:102FA00053684B6099608A60516008610168491CF0
:102FB000016030BD42684A6093688B6093685960D5
:102FC000916008610168491C01607047502080F3DE
:102FD0001188BFF34F8FBFF36F8F0A494868401CB9
:102FE000486001280CD10848006810F0FF0F07D096
:102FF000502080F31188BFF34F8FBFF36F8FFEE730
:10300000704700009800002004ED00E0094948687E
:10301000002806D0401E4860002801D180F31188A6
:103020007047502080F31188BFF34F8FBFF36F8F2D
:10303000FEE700009800002070B500282AD008386C
:103040000446154D60686969084207D1502080F335
:103050001188BFF34F8FBFF36F8FFEE722683AB13D
:10306000502080F31188BFF34F8FBFF36F8FFEE7BF
:103070008843606000F03AF96068696808446860F5
:103080002046FFF72BFC2869401C2861BDE87040F2
:1030900000F0B6BD70BD0000780000204FF0E020C9
:1030A00000210161816105494FF47A720968B1FB21
:1030B000F2F1491E416107210161704720000020A3
:1030C00010B5FDF70DF9114910280ED300F1E020DD
:1030D00090F8F0030A78904207D2502080F31188CC
:1030E000BFF34F8FBFF36F8FFEE709480068896811
:1030F00000F4E060884207D9502080F31188BFF3C4
:103100004F8FBFF36F8FFEE710BD000098000020C7
:103110000CED00E010B50022064B53F832401CB114
:10312000521C082AF9D310BD43F8321003EBC20138
:10313000486010BD1402002070B504460D461646C6
:10314000FFF744FF94F944304FF000005B1C01D1BD
:1031500084F8440094F94510491C01D184F84500D5
:10316000FFF754FFA06B28B93246294604F124002A
:1031700000F056F82046BDE87040FFF77DBD000026
:1031800010B502460020002A12D00F48006B38B15B
:10319000502080F31188BFF34F8FBFF36F8FFEE78E
:1031A00000F0A4F800211046FFF790F900F028FD88
:1031B000002807D105494FF080500860BFF34F8FBA
:1031C000BFF36F8F10BD00002400002004ED00E06D
:1031D00002490A6A0260C968416070472400002001
:1031E00001490120C86170472400002010B50C4639
:1031F00000280AD0094909681831FFF7C3FE2046A4
:10320000BDE810400121FFF761B9502080F311881B
:10321000BFF34F8FBFF36F8FFEE700002400002045
:1032200070B50D46144600280DD00B4909681831B9
:10323000FFF7C0FE0CB14FF0FF3521462846BDE830
:103240007040FFF743B9502080F31188BFF34F8FD0
:10325000BFF36F8FFEE700002400002030B587B079
:1032600000250695059504AA05A906A8FFF766FEA0
:10327000DDE90510CDE900510290002317A119489E
:10328000049A00F09BFB184CE06208B1012000E0BA
:103290000020012801D100F017FD012809D0401CB1
:1032A00019D1502080F31188BFF34F8FBFF36F8F78
:1032B000FEE7502080F31188BFF34F8FBFF36F8F6D
:1032C0004FF0FF30A06201206061E56007B0BDE80B
:1032D000304000F047B807B030BD000049444C45CD
:1032E0000000000091270008240000200248016B24
:1032F000491C0163704700002400002010B5174BE3
:10330000186B002802D00120D86110BD0020D861C0
:103310001869134901E0C0B1401E00EB800251F86A
:103320002220002AF7D000EB800201EB82014A68DC
:1033300052684A6001F10804A24201D152684A6011
:103340004968C9681960186110BD502080F3118860
:10335000BFF34F8FBFF36F8FFEE700002400002004
:10336000540200201CB537480168374A914207D102
:10337000502080F31188BFF34F8FBFF36F8FFEE7AC
:1033800000683149491E884207D1502080F31188D6
:10339000BFF34F8FBFF36F8FFEE72C490878019082
:1033A000FF200870087800909DF800009DF800202C
:1033B00000F0F000904207D0502080F31188BFF356
:1033C0004F8FBFF36F8FFEE79DF80000204C00F099
:1033D000500020700720A06006E0A068401EA0609A
:1033E0009DF80000400000909DF800000006F4D415
:1033F000A068032807D0502080F31188BFF34F8FB7
:10340000BFF36F8FFEE74FF44070A0600198087023
:103410000C482030016841F470010160016841F0FE
:1034200070410160FFF73AFE00206060FCF720FF6A
:103430000848016841F040410160FCF705FF0020A9
:103440001CBD000000ED00E071C20F4100E400E08F
:103450009800002034EF00E010B5502080F3118870
:10346000BFF34F8FBFF36F8F00F0EAFA18B1044932
:103470004FF080500860002080F3118810BD0000DC
:1034800004ED00E038B5049D002804D05BB102B122
:1034900089B1C2B120E0502080F31188BFF34F8F73
:1034A000BFF36F8FFEE7502080F31188BFF34F8F7B
:1034B000BFF36F8FFEE7502080F31188BFF34F8F6B
:1034C000BFF36F8FFEE739B1502080F31188BFF34F
:1034D0004F8FBFF36F8FFEE7502400941C460123EB
:1034E00084F846302B460094FFF766F9204638BD35
:1034F00070B504460D46002C25D0FFF767FDD4E9D2
:103500000F20216802FB0011A1600021A163216846
:103510006160E06B2268216C401E00FB0121E160CC
:103520004FF0FF3084F8440084F8450004F11000A7
:103530008DB1FFF719FD04F12400FFF715FDFFF72A
:1035400065FD012070BD502080F31188BFF34F8FBF
:10355000BFF36F8FFEE721690029F0D000F014FB64
:103560000028ECD004494FF080500860BFF34F8F23
:10357000BFF36F8FE3E7000004ED00E02DE9FF47A4
:1035800082B004468A461E460025002C03D0BAF1BC
:10359000000F08D011E0502080F31188BFF34F8F47
:1035A000BFF36F8FFEE7206C38B1502080F3118895
:1035B000BFF34F8FBFF36F8FFEE7022E0AD1E06B90
:1035C000012807D0502080F31188BFF34F8FBFF33D
:1035D0006F8FFEE700F020FA48B9049838B1502008
:1035E00080F31188BFF34F8FBFF36F8FFEE74FF06B
:1035F00000094FF08057DFF8E480FFF7E7FCA06B8D
:10360000E16B884205D3022E03D0049808B325B39A
:1036100027E0324651462046FFF72AF8616A59B141
:1036200004F1240000F0B0FA68B1C8F80070BFF3EC
:103630004F8FBFF36F8F06E028B1C8F80070BFF35B
:103640004F8FBFF36F8FFFF7E1FC012006B0BDE89D
:10365000F087FFF7DBFC0020F8E76846FFF7B8FDCE
:103660000125FFF7D3FCFFF741FEFFF7AFFC94F90C
:103670004400401C01D184F8449094F94500401C5A
:1036800001D184F84590FFF7C1FC04A9684600F019
:1036900025F930B12046FFF7EFFA00F0B1FA00202B
:1036A000D4E72046FFF771F990B104F110000499B6
:1036B000FFF79CFD2046FFF7DFFA00F0A1FA002893
:1036C0009BD1C8F80070BFF34F8FBFF36F8F94E7A3
:1036D0002046FFF7D1FA00F093FA8EE704ED00E000
:1036E0002DE9F0470446894690461F46002C03D03A
:1036F000B9F1000F08D011E0502080F31188BFF31A
:103700004F8FBFF36F8FFEE7206C38B1502080F3EE
:103710001188BFF34F8FBFF36F8FFEE7022F0AD1DF
:10372000E06B012807D0502080F31188BFF34F8F42
:10373000BFF36F8FFEE7FFF7C3FC5020EFF3118656
:1037400080F31188BFF34F8FBFF36F8FA06BE16BD6
:10375000884206D3022F04D0002086F31188BDE8EA
:10376000F08794F94550A06B3A4649462046FEF74B
:103770007FFF681C04D06D1C84F845500120ECE7E5
:10378000606A0028FAD004F1240000F0FDF9002856
:10379000F4D0B8F1000FF1D00120C8F80000EDE737
:1037A0002DE9F74783B004468A460026002C03D053
:1037B000BAF1000F08D011E0502080F31188BFF358
:1037C0004F8FBFF36F8FFEE7206C38B1502080F32E
:1037D0001188BFF34F8FBFF36F8FFEE700F01CF926
:1037E00048B9059838B1502080F31188BFF34F8F46
:1037F000BFF36F8FFEE700274FF08058DFF8D890B7
:10380000FFF7E4FBA56BC5B151462046FEF71CFF50
:103810006D1EA563206950B104F1100000F0B4F9E9
:1038200028B1C9F80080BFF34F8FBFF36F8FFFF748
:10383000EDFB012006B0BDE8F087059808B126B180
:1038400007E0FFF7E3FB0020F4E701A8FFF7C0FC67
:103850000126FFF7DBFBFFF749FDFFF7B7FB94F904
:103860004400401C01D184F8447094F94500401C88
:1038700001D184F84570FFF7C9FB05A901A800F044
:103880002DF858B12046FFF7F7F900F0B9F92046B6
:10389000FFF76EF80028B3D00020CBE72046FFF7F3
:1038A00067F890B104F124000599FFF79FFC2046CA
:1038B000FFF7E2F900F0A4F90028A1D1C9F80080CF
:1038C000BFF34F8FBFF36F8F9AE72046FFF7D4F90E
:1038D00000F096F994E7000004ED00E02DE9F041D6
:1038E00005460C46002D11D0C4B1FFF76FFB194EF1
:1038F000F0686B68C11A2268571C17D02F68366AA7
:10390000B74215D0834213D801241DE0502080F324
:103910001188BFF34F8FBFF36F8FFEE7502080F306
:103920001188BFF34F8FBFF36F8FFEE700240BE0CA
:103930008A4206D9501A20602846FFF749FC002425
:1039400002E0002020600124FFF760FB2046BDE874
:10395000F0810000240000202DE9FF5F8146DDE9B1
:103960000E788A4616469B46B000FFF7C3F9054617
:1039700028000AD05C20FFF7BDF904460CB125638E
:1039800004E02846FFF758FB00E000249CB100202B
:1039900084F85900CDE90240CDE900785B46324613
:1039A00051464846FEF719FF2046FEF7BFFD0120AD
:1039B00004B0BDE8F09F4FF0FF30F9E7F0B585B0F7
:1039C0000746DDE90A600C9C002815D0E4B15C25AF
:1039D00003952063022084F85900002004ADCDE94E
:1039E0000240CDE900653846FEF7F7FE2046FEF7B7
:1039F0009DFD049805B0F0BD502080F31188BFF301
:103A00004F8FBFF36F8FFEE7502080F31188BFF315
:103A10004F8FBFF36F8FFEE705484169002903D040
:103A2000006B18B1002070470120704702207047DA
:103A3000240000200148C0687047000024000020D6
:103A40002DE9F04100262F4F386B002805D0B869CA
:103A5000401CB8613046BDE8F081FD686D1CFD601A
:103A60009DB9786B006838B1502080F31188BFF39E
:103A70004F8FBFF36F8FFEE7786BB96B7963B863D5
:103A8000386A401C3862FFF777F8B86ADFF8788048
:103A900085420DD3786B006838B1786BC068C46814
:103AA0006068854212D2B86202E04FF0FF30B8621F
:103AB0003868C06A00EB800058F82000012800D95F
:103AC0000126F8690028C5D00126C3E7201DFFF7AD
:103AD00021FAA06A18B104F11800FFF71BFAE06A96
:103AE0003969884200D9386100EB800008EB80001A
:103AF000211DFFF75FFAE06A3968C96A8842C9D3B5
:103B00000126C7E7240000205402002070B50446B7
:103B10000020002C2BD01A4D29688C4207D0502051
:103B200080F31188BFF34F8FBFF36F8FFEE7216DD6
:103B3000F1B1491E2165E36CE26A9A4217D000296F
:103B400015D1201DFFF7E6F9E06CE062C0F1380006
:103B5000A061E06A2969884200D92861094900EB1F
:103B6000800001EB8000211DFFF724FA012070BDC9
:103B7000502080F31188BFF34F8FBFF36F8FFEE7A4
:103B8000240000205402002070B5C068C468002CD6
:103B900014D004F118000646FFF7BCF9154D2A6B46
:103BA000A2B131461448FFF705FAE06A2968C96AEC
:103BB00088421CD901200121E96170BD502080F3A9
:103BC0001188BFF34F8FBFF36F8FFEE7201DFFF704
:103BD000A1F9E06A2969884200D92861074900EB08
:103BE000800001EB8000211DFFF7E4F9DDE70020F4
:103BF00070BD000024000020DC06002054020020DC
:103C00002DE9F041002400272B4D286B002807D018
:103C1000FFF7DCF9286B401E2863286B40B146E0B3
:103C2000502080F31188BFF34F8FBFF36F8FFEE7F3
:103C3000A868E0B3DFF8848001261CE0D8F80C0007
:103C4000C46804F11800FFF765F9201DFFF762F959
:103C5000E06A2969884200D92861194900EB80008F
:103C600001EB8000211DFFF7A5F9E06A2968C96A08
:103C7000884200D3EE61D8F800000028DED10CB1F4
:103C8000FEF77AFFAC6944B1FFF7DAFE00B1EE61EE
:103C9000641E002CF8D10020A861E86938B1012722
:103CA000084938070860BFF34F8FBFF36F8FFFF7E6
:103CB000ADF93846BDE8F08124000020DC06002084
:103CC0005402002004ED00E030B587B00024FEF778
:103CD00071FC134D2868B0B100200690059004AA2D
:103CE00005A906A8FFF734F9DDE905100222CDE9A0
:103CF0000021029000230BA10C48049AFFF75EFEFE
:103D0000686000B1012414B107B0204630BD5020D6
:103D100080F31188BFF34F8FBFF36F8FFEE7000072
:103D200060000020546D722053766300652C0008FB
:103D30002DE9FF4106460A9F9C460020002E15D023
:103D4000154D2C68002C0ED0009101920296062988
:103D50001BDAFFF761FE022810D000231A466946DD
:103D60002868FFF70BFC04B0BDE8F081502080F319
:103D70001188BFF34F8FBFF36F8FFEE700233A46E2
:103D800069462868FFF7FAFBEDE7002362466946BB
:103D90002046FFF7A5FCE6E7600000204FF04070EA
:103DA000E1EE100A704700005C3E000800000000D1
:103DB00000000000000000000000000000040000FF
:103DC000180000000000000000000000703E000825
:103DD00000000000000000000000000000000000E3
:103DE00000040000080000000000000000000000C7
:103DF000503E00080000000000000000000000002D
:103E000000000000000400000800000000000000A6
:103E100000000000643E00080000000000000000F8
:103E20000000000000000000000400000800000086
:103E30000000000000000000000000000000000082
:103E40000102030406070809000000000102030440
:103E500053746174656D6163000000004C656474A7
:103E600061736B00426565707461736B00000000E4
:103E70004D6F746F727461736B0000009C3E00089C
:103E800000000020A4000000C4010008403F00081A
:103E9000A4000020A4560000E0010008000000007B
:103EA0000000000000000000000000000000000012
:103EB0000100000010000000000000000024F400D9
:103EC00000000000000000000000000000000000F2
:103ED00000000000000000000000000000000000E2
:103EE00000000000000000000000000000000000D2
:103EF00000000000000000000000000000000000C2
:103F000000000000000000000000000000000000B1
:103F100000000000000000000000000000000000A1
:103F20000000000000000000000000000000000091
:103F30000000000000000000AAAAAAAA00000000D9
:040000050800018965
:00000001FF
