:020000040800F2
:10000000505A0020E9020008632C0008E329000888
:10001000512C0008E9060008B12F0008000000007C
:10002000000000000000000000000000290200089D
:100030001F1100080000000085020008E32D0008E1
:100040000303000803030008030300080303000878
:100050000303000803030008030300080303000868
:100060000303000803030008030300080303000858
:100070000303000803030008030300080303000848
:100080000303000803030008030300081D0700081A
:10009000ED060008FD0600080D0700080303000830
:1000A00003030008C12E000803030008030300082F
:1000B0000303000803030008030300080303000808
:1000C00003030008030300080303000803030008F8
:1000D00003030008030300080303000803030008E8
:1000E00003030008030300080303000803030008D8
:1000F00003030008030300080303000803030008C8
:1001000003030008030300080303000803030008B7
:1001100003030008030300080303000803030008A7
:100120000303000803030008030300080303000897
:100130000303000800000000000000005D07000845
:100140002D0700083D0700084D07000803030008BD
:100150000303000803030008030300080303000867
:100160000303000803030008030300080303000857
:100170000303000803030008000000000000000063
:10018000030300080303000800F002F800F03CF845
:100190000AA090E8000C82448344AAF10107DA45E2
:1001A00001D100F031F8AFF2090EBAE80F0013F0F8
:1001B000010F18BFFB1A43F0010318473C51000020
:1001C0005C510000103A24BF78C878C1FAD85207B1
:1001D00024BF30C830C144BF04680C6070470000C1
:1001E0000023002400250026103A28BF78C1FBD840
:1001F000520728BF30C148BF0B6070471FB505F0DC
:100200000BF81FBD10B510BD00F0D4F91146FFF773
:10021000F5FF02F0DFFF00F0F2F903B4FFF7F2FFA1
:1002200003BC00F0F5F900002C4B19680868B0E831
:10023000F04F80F30988BFF36F8F4FF0000080F319
:10024000118870470000000008480068006880F3CB
:1002500008884FF0000080F3148862B661B6BFF3DF
:100260004F8FBFF36F8F00DF00BF00BF08ED00E0CE
:10027000DFF80C00016841F470010160704700BFB5
:1002800088ED00E0EFF30980BFF36F8F134B1A681E
:100290001EF0100F08BF20ED108A20E9F04F10600B
:1002A00009B44FF0500080F31188BFF34F8FBFF3B4
:1002B0006F8F04F0ADF84FF0000080F3118809BC97
:1002C00019680868B0E8F04F1EF0100F08BFB0ECD6
:1002D000108A80F30988BFF36F8F704734000020C5
:1002E000EFF3058070470000094880470948004740
:1002F000FEE7FEE7FEE7FEE7FEE7FEE7FEE7FEE7D6
:10030000FEE7FEE704480549054A064B7047000032
:10031000AD2E000889010008504E0020505A0020E0
:10032000505600205056002053EA020C00F069801D
:100330002DE9F04B4FF00006002B1FBFB3FA83F5F9
:1003400003FA05F424FA05F65E4012BF1643B2FA2A
:1003500082F502FA05F4C5F120051EBF22FA05FC5C
:1003600044EA0C04203556EA044C4FEA144418BF02
:10037000641C4FF000084FF00009904271EB030C31
:1003800039D3002919BFB1FA81F701FA07F6B0FA9B
:1003900080F700FA07F6C7F120071EBF20FA07FC16
:1003A00046EA0C062037B6FBF4FCA7EB0507103F26
:1003B00007F01F0BCBF120060CFA0BFB2CFA06F60C
:1003C00044BFB3460026202FA4BF5E464FF0000B6B
:1003D0005BEA060C08BF4FF0010B19EB0B09ABFBF6
:1003E000027C48EB0608C01B06FB02CC0BFB03CCCF
:1003F00071EB0C01C1E70B46024641464846BDE899
:10040000F08B13B54FF000004FF00001AFF3008008
:10041000BDE81C407047032A40F2308010F0030C06
:1004200000F0158011F8013BBCF1020F624498BF47
:1004300011F801CB00F8013B38BF11F8013BA2F1E4
:10044000040298BF00F801CB38BF00F8013B11F05F
:10045000030300F02580083AC0F0088051F8043BFF
:10046000083A51F804CBA0E80810F5E7121D5CBF6C
:1004700051F8043B40F8043BAFF30080D20724BF9F
:1004800011F8013B11F801CB48BF11F8012B24BF33
:1004900000F8013B00F801CB48BF00F8012B704782
:1004A00010B5203AC0F00B80B1E81850203AA0E80F
:1004B0001850B1E81850A0E81850BFF4F5AF5FEA43
:1004C000027C24BFB1E81850A0E8185044BF18C9F6
:1004D00018C0BDE810405FEA827C24BF51F8043B9D
:1004E00040F8043B08BF7047D20728BF31F8023BF1
:1004F00048BF11F8012B28BF20F8023B48BF00F885
:10050000012B704702F0FF0343EA032242EA024252
:1005100000F02CB84FF0000200B513469446964602
:10052000203922BFA0E80C50A0E80C50B1F1200106
:10053000BFF4F7AF090728BFA0E80C5048BF0CC0B4
:100540005DF804EB890028BF40F8042B08BF704712
:1005500048BF20F8022B11F0804F18BF00F8012B84
:1005600070477047704770474FF000020429C0F091
:10057000128010F0030C3FF4CFAFCCF1040CBCF1AF
:10058000020F18BF00F8012BA8BF20F8022BA1EB27
:100590000C01FFF7C1BF5FEAC17C24BF00F8012B4B
:1005A00000F8012B48BF00F8012B70470048704746
:1005B000F04D00207546FFF7F9FFAE46050069468D
:1005C000534620F00700854618B020B5FFF79AFE85
:1005D000BDE820404FF000064FF000074FF0000844
:1005E0004FF0000B21F00701AC46ACE8C009ACE8C5
:1005F000C009ACE8C009ACE8C0098D46704710B529
:100600000446AFF300802046BDE81040FFF705BE6A
:1006100001491820ABBEFEE726000200704700002B
:1006200000BF002412E0012211020E4801F0D2FBAB
:10063000282002F0EDFD00224FF48071094801F0FE
:10064000C9FB282002F0E4FD601CC4B20648007813
:100650008442E8DB002004490870012002F0D8FD44
:10066000DFE7000000000240200000200149087080
:10067000704700002000002010B501221102194827
:1006800001F0A8FBC82001F097FA00224FF4807116
:10069000144801F09FFBC82001F08EFA01221102DC
:1006A000104801F097FB322001F086FA00224FF447
:1006B00080710C4801F08EFB322001F07DFA01229E
:1006C0001102084801F086FB322001F075FA002281
:1006D0004FF48071034801F07DFB322001F06CFA89
:1006E00010BD00000000024000BFFEE710B5024848
:1006F00000F035FF10BD0000B400002010B5024826
:1007000000F02DFF10BD0000B400002010B502481D
:1007100000F025FF10BD0000B400002010B5024815
:1007200000F01DFF10BD0000B400002010B502480D
:1007300000F015FF10BD0000DC00002010B50248DD
:1007400000F00DFF10BD0000DC00002010B50248D5
:1007500000F005FF10BD0000DC00002010B50248CD
:1007600000F0FDFE10BD0000DC00002002780B78D8
:1007700003700A707047B0EE401AB4EEE01AF1EE62
:1007800010FA02DDB0EE600A7047B1EE600AB4EE16
:10079000C01AF1EE10FA02D2B1EE600AF4E7B0EE40
:1007A000410AF1E710B504464420015B6020005B7C
:1007B000081A01B246200153B4F94600002802DDB0
:1007C000B4F9460002E0B4F946004042B0F5805F5B
:1007D0000FDDB4F94610B4F94600002801DD012010
:1007E00001E04FF0FF30A28800FB121001B246205A
:1007F0000153A16CB4F946000144A164204600F005
:1008000092FCA08800EE900AF8EE600A60EE200AE2
:10081000A06C00EE100AB8EEC00A9FED191A20EE87
:10082000010A80EE201A84ED0E1A607810B1A06CD7
:10083000C4F88C006F20005D28B1204600F074FBE6
:1008400000216F200155A08EA4F8500094ED0E0AEF
:1008500084ED150AA18F5820015394ED100A84ED00
:10086000170A4420015B602001534620015B62208F
:100870000153A16C61664C20015D6820015510BDDB
:100880000000B44370B588B00446182102A8FFF7F1
:1008900041FE00200190002504900590082006905C
:1008A00000208DF81C002078042807D84FF4007031
:1008B00002902078401E4006050E06E040F2FF1030
:1008C00002902078401F4006050E208B10494853A7
:1008D0000B466A1C99181A465019FFF747FF2078F3
:1008E000042802D02078082810D100BF012010B1C0
:1008F000012804D101E0074802E0074800E0002099
:10090000064601AB024A02A900F029FC08B070BDFE
:1009100018000020B4000020DC00002010B50024E6
:1009200087E004EB4400C0EB8410444901EB8000F5
:100930004078002869D004EB4401C1EB84113F4AA0
:1009400002EB810000F05CFB04EB4400C0EB841080
:100950003A4901EB8000C078052854D2DFE800F066
:1009600003151F293300002004EB4401C1EB84115F
:10097000324A02EB8101088304EB4401C1EB84118C
:1009800002EB8100FFF77EFF52E004EB4401C1EB74
:1009900084112A4A02EB810000F0D4FA34E004EB1F
:1009A0004401C1EB8411254A02EB810000F0A2F959
:1009B0002AE004EB4401C1EB8411204A02EB8100E0
:1009C00000F03FFB20E004EB4400C0EB84101B4927
:1009D00001EB8000B0F9140001EE100AB8EEC11A64
:1009E000F0EE410A04EB4400C0EB841001EB800000
:1009F000B0F9180001EE100AB8EEC11AB0EE410AC3
:100A0000FFF7B9FE00E000BF08E0002004EB44015E
:100A1000C1EB8411094A02EB8101088304EB440114
:100A2000C1EB8411054A02EB8100FFF72BFF00BFE9
:100A3000641C042CFFF475AF10BD00004C010020B5
:100A400010B596B040F2FF101490B7EE000A8DED8D
:100A5000120A9FED9F0A8DED130A41F6FF70ADF863
:100A6000440041F29410ADF854004FF400700F9020
:100A7000B7EE000A8DED0D0A9FED960A8DED0E0A78
:100A800041F6FF70ADF8300042F21070ADF8400052
:100A900001208DF8170000208DF82C009FED8E0AA4
:100AA0008DED060A9FED8D0A8DED070A8DF8150074
:100AB00001208DF816004FF4D770099000208DF8B2
:100AC00014004FF4C870ADF8200040F6B830ADF80F
:100AD0002A003220ADF8280001208DF813000020F4
:100AE0008DF811008DF812008DF810000290ADF80D
:100AF0000C00ADF80E000090ADF80400ADF8060053
:100B000000249CE0002004EB4401C1EB8411744AF2
:100B100002EB8101487004EB4401C1EB841102EB4C
:100B2000810188709DF8100004EB4401C1EB841131
:100B300002EB810181F86C009DF8111004EB440078
:100B4000C0EB841002EB800080F86D109DF812104D
:100B500004EB4400C0EB841002EB800080F86E10C0
:100B60009DF8131004EB4400C0EB841002EB8000EE
:100B700080F86F1004EB4401C1EB841102EB81019A
:100B800001F170001C2205A9FFF78AFC029804EB12
:100B90004401C1EB8411524A02EB8101C1F88C007F
:100BA00004EB4400C0EB8410114601EB8000039974
:100BB000C0F89010009804EB4401C1EB841102EBE3
:100BC0008101C1F8940004EB4400C0EB841011468D
:100BD00001EB80000199C0F89810002004EB44015B
:100BE000C1EB841102EB810108839FED3B0A04EB0A
:100BF0004400C0EB8410114601EB800080ED070A31
:100C0000002104EB4400C0EB841002EB800001845F
:100C100004EB4400C0EB841002EB8000C16204EBE3
:100C20004400C0EB841002EB8000816404EB4400BC
:100C3000C0EB841002EB8000A0F86010641C042C50
:100C4000FFF460AF002000BF00BF002413E0601C71
:100C500004EB4401C1EB8411214A02F8210004EBAA
:100C60004401C1EB841102EB8101081D14220CA97F
:100C7000FFF716FC641C042CE9D3002424E004EBE9
:100C80004401C1EB8411164A02EB810101F19C0081
:100C900000219FED111ADFED130A9FED130A02F0F8
:100CA0004AF804EB4401C1EB84110D4A02EB8101C7
:100CB00001F1C80001219FED0D1ADFED0D0AB1EE23
:100CC000060A02F038F8641C042CD8D316B010BD04
:100CD000000010422CA0994100000000000020C339
:100CE0004C0100206F12033A295C8F3D0AD7233C48
:100CF0009A99993E10B52DED028B04467120005D46
:100D0000C8B194ED070AD4ED1E0A94ED1D1AB4EE95
:100D1000E00AF1EE10FA02D2F0EE601A09E0B4EE49
:100D2000C10AF1EE10FA02DDF0EE411A01E0F0EE38
:100D3000401AC4ED071A204600F0F5F9D4ED070A71
:100D400060EE200AA08800EE100AB8EE400A20EEFD
:100D5000800ADFED370A80EE201ABDEEC10A10EEE0
:100D6000100AE062E06A00EE100AB8EEC00A84EDF4
:100D70002A0AA06C00EE100AB8EEC00A84ED2B0A15
:100D800004F19C0001F06FFF84ED350A7220005DD4
:100D9000A0B1204600F0C7F9D4ED200AF8EEE00A31
:100DA00020EE200AB0EE408AD4ED350AB0EE600A9B
:100DB000F0EE480AFFF7DFFC84ED350A204600F02C
:100DC000B2F9B4F93C0000EE900AF8EEE00A20EE29
:100DD000200A84ED360A04F1C80001F044FFB4F99A
:100DE000180000EE900AF8EEE00A30EE200ABDEEA0
:100DF000C00A10EE100A00B22083B4F9140001EE0C
:100E0000100AB8EEC11AF0EE410AB4F9180001EE6A
:100E1000100AB8EEC11AB0EE410AFFF7ACFCBDEE05
:100E2000C00A10EE100A00B22083BDEC028B10BD88
:100E30000000B4430FB42DE9F0410D9D089848B966
:100E4000099838B90698B0F5007F03D90698B0F52F
:100E5000027F03D9BDE8F0015DF814FB0698C6B225
:100E6000042E00D9F6E7701E00EB4001C1EB8010A4
:100E70002A4901EB80046878297840EA012001B210
:100E800044200153E878A97840EA012007B2687944
:100E9000297940EA012000B2A086207808B101211A
:100EA00000E0002181B1A87941B24C200155B4F98C
:100EB000340000EE100AB8EEC00ADFED190A20EE89
:100EC000200A84ED100A0FE0B4F9340000EE100A95
:100ED000B8EEC00A9FED131AC0EE010AB2EE040A82
:100EE00020EE800A84ED100A204600F01CF9F0EE96
:100EF000400A00EE107AB8EEC00A80EE201ABDEE6D
:100F0000C10A10EE100A01B2A1870020C4F89400B3
:100F10002046FFF747FC00BF9CE700004C01002083
:100F2000E5FF9F3A00401C4600226F210A549FEDC6
:100F3000040A80ED0E0A82640021C0F88C1070470C
:100F40000000000010B5044694F8700098B1B4F9A0
:100F50007C0001EE100AB8EEC11AF0EE410A94EDE1
:100F6000351AB0EE410AFFF706FCBDEEC00A10EEDE
:100F7000100A01B22184204600F0D5F8B4F920000F
:100F800000EE900AF8EEE00A20EE200A84ED350A21
:100F9000204600F0C8F8B4F93C0000EE900AF8EEE4
:100FA000E00A20EE200A84ED360A04F1C80001F0C0
:100FB0005AFEB4F9180000EE900AF8EEE00A30EE9E
:100FC000200ABDEEC00A10EE100A00B22083B4F968
:100FD000140001EE100AB8EEC11AF0EE410AB4F99D
:100FE000180001EE100AB8EEC11AB0EE410AFFF780
:100FF000C2FBBDEEC00A10EE100A00B2208310BD85
:1010000010B50446A078E178884219D0A078E07045
:10101000002020830021218494ED0E0A84ED070A2C
:1010200004F19C0001F098FE04F1C80001F094FE68
:10103000002084F86C0000216D2001556E200155C0
:1010400010BD10B50446204600F06DF8B4F98400D8
:1010500000EE900AF8EEE00A20EE200A84ED350A50
:10106000204600F060F8B4F93C0000EE900AF8EE7B
:10107000E00A20EE200A84ED360A04F1C80001F0EF
:10108000F2FDB4F9180000EE900AF8EEE00A30EE36
:10109000200ABDEEC00A10EE100A00B22083B4F997
:1010A000860001EE100AB8EEC11AF0EE410AB4F95A
:1010B000180001EE100AB8EEC11AB0EE410AFFF7AF
:1010C0005AFBBDEEC00A10EE100A00B22083B4F93C
:1010D0004600002802DDB4F9460002E0B4F94600FB
:1010E00040420F281ADA9020015B005B401C82B25C
:1010F00090200253642911D900210153012084F862
:101100006C000020607004F19C0001F025FE04F1E9
:10111000C80001F021FE2046FFF706FF10BD704712
:1011200072B600BFFEE790ED020AD0ED030A20EE92
:10113000200A704710B5024692F82030012B01D0EA
:10114000022B06D1106840690843146860610020D2
:1011500010BD506A40F4802050620120F8E7F0B5DD
:1011600004460D461E4694F8207020688368A868DF
:1011700000B900E000BF012F01D0022F7DD103F0A4
:10118000806030B903F0006018B903F08050002887
:101190007ED0C3F30161012088403060A86860B947
:1011A000B5F800C0E86840EA4C5C206800F5C07003
:1011B00000EB0110C0F800C00FE0D5E901C040EA23
:1011C000CC00D5F80CC040EA0C00D4F800C00CF5F7
:1011D000C07C0CEB011CCCF80000D5F810C02068D6
:1011E00000F5C07000EB0110C0F804C0287D012894
:1011F0000ED1206800F5C07000EB0110406840F48B
:10120000807C206800F5C07000EB0110C0F804C0BD
:10121000D079000692F806C040EA0C4092F805C06A
:1012200040EA0C2092F804C040EA0C00D4F800C058
:101230000CF5C07C0CEB011CCCF80C00D07800063F
:1012400092F802C040EA0C4092F801C040EA0C203B
:1012500092F800C040EA0C00D4F800C00CF5C07C45
:101260000CEB011CCCF80800206800F5C07000EB06
:101270000110006840F0010C01E00FE008E0206878
:1012800000F5C07000EB0110C0F800C00020F0BDF8
:10129000606A40F4001060620120F8E7606A40F480
:1012A000802060620120F2E7F0B504460A4694F817
:1012B0002050012D01D0022D7ED1424901F500714F
:1012C000086840F001000860086820F47C5008605D
:1012D0000868566A40EA06200860107D00F01F0684
:1012E000012000FA06F3C8699843C861A1F50071AE
:1012F000D069C8B9D1F80C029843C1F80C029088A3
:1013000080B2968940EA064601F51070576940F8A8
:101310003760108880B2168940EA064601F51070E1
:10132000576900EBC7004660D069012819D1D1F890
:101330000C021843C1F80C02908880B2168840EA6B
:10134000064601F51070576940F83760908980B201
:10135000168940EA064601F51070576900EBC70090
:101360004660906928B9D1F804029843C1F8040294
:1013700004E0D1F804021843C1F80402106928B946
:10138000D1F814029843C1F8140204E0D1F8140211
:101390001843C1F81402106A012804D1D1F81C02C4
:1013A0001843C1F81C02D1F8000220F00100C1F876
:1013B00000020020F0BDFFE7606A40F48020606218
:1013C0000120F7E700640040704770B5044694F8C8
:1013D0002050012D01D0022D7DD151B92068C06867
:1013E00000F0030080B9606A40F4001060620120E0
:1013F00070BD2068006900F0030028B9606A40F4FD
:10140000001060620120F3E7206800F5D87000EB5F
:101410000110006800F004009060906840B92068F6
:1014200000F5D87000EB01100068400D106007E077
:10143000206800F5D87000EB01100068C00850600B
:10144000206800F5D87000EB0110006800F0020081
:10145000D060206800F5D87000EB0110406800F003
:101460000F00082802D30820106108E0206800F56A
:10147000D87000EB0110406800F00F001061206888
:1014800000F5D87000EB0110406800F47F40000ABE
:101490009061206800F5D87000EB01104068000CE6
:1014A0005061206800F5D87000EB0110806818705A
:1014B000206800F5D87000EB0110806800F47F40D0
:1014C000000A5870206800F5D87000EB01108068A1
:1014D00000F47F0000E03CE0000C9870206800F50C
:1014E000D87000EB01108068000ED870206800F5FD
:1014F000D87000EB0110C0681871206800F5D87032
:1015000000EB0110C06800F47F40000A58712068A9
:1015100000F5D87000EB0110C06800F47F00000CEB
:101520009871206800F5D87000EB0110C068000EBB
:10153000D87131B92068C06840F020002668F0609A
:1015400005E02068006940F0200026683061002036
:101550004EE7606A40F480206062012048E72DE990
:10156000F05F04460025206846692068D0F80490A2
:10157000206887682068D0F80CA02068D0F810B0E8
:101580002068D0F8188006F00100002855D007F038
:101590000100C0B101202168886007F0020018B185
:1015A000204600F002FB0EE007F0040010B145F405
:1015B000006508E007F0080010B145F4805502E02E
:1015C000204600F0F1FA07F48070C8B14FF4807043
:1015D0002168886007F4007018B1204600F0E7FA2F
:1015E0000EE007F4806010B145F4005508E007F400
:1015F000006010B145F4804502E0204600F0D6FAC4
:1016000007F48030C8B14FF480302168886007F457
:10161000003018B1204600F0CCFA0EE007F480202C
:1016200010B145F4004508E007F4002010B145F47E
:10163000803502E0204600F0BBFA06F0080038B121
:101640000AF0100020B145F4007510202168C86030
:1016500006F0040040B10AF0080028B10820216813
:10166000C860204600F03EFA06F0020038B120685B
:10167000C06800F0030010B1204600F035FA06F013
:10168000400038B10BF0100020B145F48065102007
:101690002168086106F0200040B10BF0080028B175
:1016A000082021680861204600F04CFA06F010007E
:1016B00038B12068006900F0030010B1204600F046
:1016C00042FA06F4003040B109F0100028B11020B1
:1016D00021684860204600F037FA06F4803040B1B7
:1016E00009F0080028B1082021684860204600F071
:1016F00061FA06F4004088B309F0040078B306F4F8
:10170000807020B108F0010008B145F0010506F431
:10171000007020B108F0020008B145F0020506F49F
:10172000806020B108F0040008B145F0040506F41B
:101730000060A0B108F0700088B108F07000402887
:1017400017D006DC10280BD020280CD0302819D157
:101750000CE0502810D0602814D110E01DE019E0F2
:1017600045F008050FE045F010050CE045F02005B8
:1017700009E045F0400506E045F0800503E045F44A
:10178000807500E000BF00BF2068806920F0700015
:10179000216888610420216848602DB1606A28436F
:1017A00060622046FFF710FEBDE8F09F70B504466A
:1017B0000CB9012070BD94F8200010B9204600F04B
:1017C000AFF82068006840F001002168086000F070
:1017D00007FB05460DE000F003FB401B0A2808D973
:1017E000606A40F400306062052084F82000012027
:1017F000E0E72068406800F001000028EBD0206896
:10180000006820F002002168086000F0E9FA05464F
:101810000DE000F0E5FA401B0A2808D9606A40F4A0
:1018200000306062052084F820000120C2E72068B3
:10183000406800F002000028EBD1207E012806D18C
:101840002068006840F080002168086005E020689A
:10185000006820F0800021680860607E012806D1C1
:101860002068006840F040002168086005E02068BA
:10187000006820F0400021680860A07E012806D1A1
:101880002068006840F020002168086005E02068BA
:10189000006820F0200021680860E07E012806D161
:1018A0002068006820F010002168086005E02068CA
:1018B000006840F0100021680860207F012806D1F0
:1018C0002068006840F008002168086005E0206892
:1018D000006820F0080021680860607F012806D1B8
:1018E0002068006840F004002168086005E0206876
:1018F000006820F0040021680860D4E90201084370
:1019000021690843616908436168491E08432168E9
:10191000C86100206062012084F82000002049E7AF
:1019200010B586B00446142101A8FEF7F3FD6749FF
:10193000206888425AD166480068401C64490860A3
:101940000846006801280FD100BF002000906148C0
:10195000006840F000705F4908600846006800F0C9
:101960000070009000BF00BF00BF002000905948E9
:101970001038006840F001005649103908600846E8
:10198000006800F00100009000BF00BF4FF4C0509D
:10199000019002200290002003900320049009206F
:1019A000059001A94C4800F01BF9002205211320E5
:1019B00000F0D4FA132000F0BDFA00220521142013
:1019C00000F0CCFA142000F0B5FA00220521152011
:1019D00000F0C4FA152000F0ADFA0022052116200F
:1019E00000F0BCFA162000F0A5FA6CE03B49206834
:1019F000884268D100BF002000903648006840F05F
:101A00008060344908600846006800F080600090FB
:101A100000BF00BF2E480068401C2D4908600846E2
:101A2000006801280FD100BF0020009029480068FD
:101A300040F00070274908600846006800F0007018
:101A4000009000BF00BF00BF002000902148103868
:101A5000006840F002001F4910390860084600681D
:101A600000F00200009000BF00BF60200190022043
:101A7000029000200390032004900920059001A902
:101A8000174800F0ADF8002205213F2000F066FA6B
:101A90003F2000F04FFA00220521402000F05EFABE
:101AA000402000F047FA00220521412000F056FABC
:101AB000412000F03FFA00220521422000F04EFABA
:101AC000422000F037FA06B010BD0000006400406C
:101AD0001000002040380240000002400068004032
:101AE000000402407047000010B58EB00446134950
:101AF000206888420BD105AB07AA00212046FFF7DA
:101B000064FCC8B905A907A801F054FA14E00C490F
:101B10002068884210D105AB07AA00212046FFF7B4
:101B200054FC48B905A803900BA807C88DE8070026
:101B300007A80FC8FFF77EF90EB010BD0064004083
:101B40000068004070477047704770B5044694F8CD
:101B50002000012822D1022084F82000206800689B
:101B600020F001002168086000F03AF905460DE018
:101B700000F036F9401B0A2808D9606A40F40030AA
:101B80006062052084F82000012070BD2068406854
:101B900000F001000028EBD16062F6E7606A40F4D3
:101BA000002060620120F0E770477047704770477F
:101BB000704770477047000070B5044600F010F998
:101BC00006462546681C10B104480078054400BF4D
:101BD00000F006F9801BA842FAD370BD2C0000204B
:101BE000F8B502460B460025002400200021D6E06F
:101BF000012606FA01F51E6806EA0504AC4274D116
:101C00001E7906F00306012E04D01E7906F00306A5
:101C1000022E13D190684F000326BE40B0434F0000
:101C2000DE68BE4030439060506801268E40B0436D
:101C30001E79C6F300168E40304350601E7906F0C0
:101C40000306032E09D0D0684F000326BE40B043E0
:101C50004F009E68BE403043D0601E7906F00306F8
:101C6000022E13D1CF0802F1200656F827004E07A6
:101C7000F70E0F26BE40B0434F07FF0E1E69BE4051
:101C80003043CF0802F1200646F8270010684F00C5
:101C90000326BE40B0431E7906F003064F00BE4047
:101CA000304310605E6806F44036002E76D000BFE8
:101CB000002600963C4E366846F480463A4F3E6019
:101CC0003E46366806F48046009600BF00BF374E99
:101CD0008F0856F827008E07370F0F26BE40B043F7
:101CE000334EB24202D1002624E057E0314EB242D8
:101CF00001D101261EE0304EB24201D1022619E088
:101D00002E4EB24201D1032614E02D4EB24201D133
:101D100004260FE02B4EB24201D105260AE02A4EDE
:101D2000B24201D1062605E0284EB24201D1072673
:101D300000E008268F073F0FBE4030431B4E8F0840
:101D400046F82700224E3068A0435E6806F48016ED
:101D500006B120431E4E3060361D3068A0435E68D9
:101D600006F4001606B12043194E361D3060184E99
:101D7000361F3068A0435E6806F4003606B1204383
:101D8000134E361F3060361F3068A0435E6806F47D
:101D9000803606B120430E4E083E3060491C1029A3
:101DA000FFF426AFF8BD0000443802400838014077
:101DB000000002400004024000080240000C024003
:101DC000001002400014024000180240001C0240B3
:101DD000083C01400AB1816101E00B048361704756
:101DE0000148006870470000240000200348006894
:101DF000034909780844014908607047240000201D
:101E00002C00002010B50D48006840F400700B490C
:101E100008600846006840F4806008600846006872
:101E200040F480700860032000F0D6F80F2000F026
:101E300007F800F055F8002010BD0000003C0240FB
:101E4000F0B587B004460026002700BF00200090B0
:101E50001E48006840F001001C4908600846006800
:101E600000F00100009000BF00BF01A902A800F02F
:101E700089F900F0AFF946001548B6FBF0F0471EAF
:101E800014481549086040F2E7311348C1604760C3
:101E9000002101618160816100F054FC054695B923
:101EA0000D4800F083FC05466DB9192000F042F89A
:101EB000102C07D200222146192000F04FF80748C5
:101EC000046000E00125284607B0F0BD4438024018
:101ED00040420F00000001400401002028000020C3
:101EE00008B500BF002000901148006840F4804011
:101EF0000F4908600846006800F48040009000BF69
:101F000000BF00BF00200090081F006840F0805014
:101F1000091F08600846006800F08050009000BF6C
:101F200000BF00220F21901E00F018F808BD00002D
:101F3000443802400146084600280DDB00BF00BFC0
:101F400000F01F0301229A4043099B0003F1E023A4
:101F5000C3F8002100BF00BF00BF70472DE9F05F4C
:101F600080460D461646002701F014F9074639460B
:101F70002A46334601F00700C0F1070ABAF1040F00
:101F800002D94FF0040A01E0C0F1070AD14600F17E
:101F9000040ABAF1070F02D24FF0000A01E0A0F1E3
:101FA000030AD4464FF0010A0AFA09FAAAF1010A13
:101FB0000AEA020A0AFA0CFA4FF0010B0BFA0CFBC0
:101FC000ABF1010B0BEA030B4AEA0B042146404636
:101FD00001F0E8F8BDE8F09F00BF00F00702064BF3
:101FE00019684FF6FF031940044B0B4343EA0221E3
:101FF000014B196000BF70470CED00E00000FA05CE
:1020000070B504460D460CB9012070BD58480068F3
:1020100000F00700A84209D255490D700846006833
:1020200000F00700A84201D00120EEE7207800F080
:10203000020002281DD1207800F00400042805D1F8
:102040004C48006840F4E0504A490860207800F0AD
:102050000800082805D14748006840F46040454919
:1020600008604448006820F0F000A1680843414936
:102070000860207800F00100A8B36068012807D14B
:102080003C4808380068C0F34040B8B90120BCE7BC
:102090006068022802D06068032807D135480838F4
:1020A0000068C0F3406048B90120AEE73148083805
:1020B0000068C0F3400008B90120A6E72D48006879
:1020C00020F00300616808432A490860FFF788FE92
:1020D000064609E0FFF784FE801B41F28831884202
:1020E00002D9032091E707E02248006800F00C00C5
:1020F0006168B0EB810FEDD11D48006800F007006A
:10210000A84209D91A490D700846006800F0070076
:10211000A84201D0012078E7207800F004000428CC
:1021200007D11448006820F4E050E16808431149E1
:102130000860207800F00800082808D10D480068E1
:1021400020F46040216940EAC1000A49086000F0BB
:1021500051F808490968C1F30311074A515CC840A6
:102160000649086006480068FFF76AFE00204CE751
:10217000003C024008380240B45200083000002001
:10218000280000200F2202600D4A126802F00302AC
:1021900042600B4A126802F0F0028260084A12683C
:1021A00002F4E052C260064A126802F46042D208A9
:1021B0000261044A126802F007020A6070470000D8
:1021C00008380240003C02400148006870470000A7
:1021D0003000002000B5FFF7F7FF04490968C1F39C
:1021E0004231034A515CC84000BD0000083802403B
:1021F000C45200082DE9F047002400250026A1461E
:102200002548006800F00C0020B1042805D00828FB
:102210003AD105E0DFF8849039E0DFF8849036E0C9
:102220001D48001F006800F03F041B48001F0068A5
:1022300000F4800078B11A481749091F0968C1F3F2
:102240008811A0FB01700146224600233846FEF7A4
:102250006BF805460EE011480F49091F0968C1F3E4
:102260008811A0FB01700146224600233846FEF784
:102270005BF805460848001F0068C0F30140401C99
:102280004600B5FBF6F902E0DFF8109000BF00BF92
:102290004846BDE8F0870000083802400024F400FA
:1022A00040787D01F8B504460CB90120F8BD2078CE
:1022B00000F00100002874D0F948006800F00C001C
:1022C00004280DD0F648006800F00C00082813D14F
:1022D000F348001F006800F48000B0F5800F0BD1B8
:1022E000EF4808380068C0F34040002859D06068C3
:1022F000002856D10120D9E700BF6068B0F5803FC3
:1023000008D1E7480838006840F48030E4490839CB
:1023100008601EE06068B0F5A02F0DD1E0480838D5
:10232000006840F48020DE490839086008460068EB
:1023300040F4803008600CE0D9480838006820F488
:102340008030D749083908600846006820F48020AA
:10235000086000BF606890B1FFF742FD054606E0E7
:10236000FFF73EFD401B642801D903209EE7CC48BF
:1023700008380068C0F340400028F1D011E0FFF7B2
:102380002FFD054606E0FFF72BFD401B642801D911
:1023900003208BE7C24808380068C0F3404000289B
:1023A000F1D1207800F0020002285FD1BC4800681B
:1023B00000F00C0058B1BA48006800F00C00082882
:1023C0001CD1B748001F006800F48000B0B9B448C1
:1023D00008380068C0F3400020B1E068012801D04F
:1023E000012063E7AE480838006820F0F800216952
:1023F00040EAC100AA490839086037E0E06800B344
:102400000120A8490860FFF7EBFC054606E0FFF74E
:10241000E7FC401B022801D9032047E7A048083801
:102420000068C0F340000028F1D09D4808380068DB
:1024300020F0F800216940EAC10099490839086094
:1024400014E0002097490860FFF7CAFC054606E043
:10245000FFF7C6FC401B022801D9032026E790485D
:1024600008380068C0F340000028F1D1207800F05F
:10247000080008282CD16069A8B101208A490860A9
:10248000FFF7AEFC054606E0FFF7AAFC401B02285A
:1024900001D903200AE782486C300068C0F340008D
:1024A0000028F1D014E000207F490860FFF798FC75
:1024B000054606E0FFF794FC401B022801D90320E3
:1024C000F4E677486C300068C0F340000028F1D192
:1024D000207800F00400042870D1002770483830BC
:1024E000006800F0805090B900BF002000906C4858
:1024F0003830006840F0805069493831086008463B
:10250000006800F08050009000BF00BF01276748BE
:10251000006800F48070B0B96448006840F48070CE
:1025200062490860FFF75CFC054606E0FFF758FCCF
:10253000401B022801D90320B8E65C48006800F47B
:1025400080700028F2D000BFA068012808D154484C
:102550006830006840F001005149683108601DE0B2
:10256000A06805280DD14E486830006840F004008E
:102570004B49683108600846006840F00100086077
:102580000CE047486830006820F001004449683199
:1025900008600846006820F00400086000BFA068DA
:1025A000A8B1FFF71DFC054609E0FFF719FC401B29
:1025B00041F28831884202D9032077E626E0384884
:1025C00068300068C0F340000028EED013E0FFF749
:1025D00007FC054608E0FFF703FC401B41F2883189
:1025E000884201D9032061E62D4868300068C0F3B5
:1025F00040000028EFD1012F07D12948383000686A
:1026000020F0805026493831086000BFA0690028BA
:1026100045D02348006800F00C0008285DD0A06970
:10262000022845D100201F490866FFF7D9FB05465F
:1026300006E0FFF7D5FB401B022801D9032035E651
:10264000174808380068C0F340600028F1D1D4E989
:1026500007010843616A40EA81110122A06AC2EBC6
:10266000500041EA00412C20005D41EA00600C4925
:10267000091F086001200B490866FFF7B1FB0546FA
:1026800006E0FFF7ADFB401B022801D903200DE651
:10269000034808380068C0F340600028F1D049E0E2
:1026A0000838024000004742800E47420070004058
:1026B000002021490866FFF793FB054606E0FFF777
:1026C0008FFB401B022801D90320EFE51B4800685F
:1026D000C0F340600028F2D12CE0A069012800D1AD
:1026E000E4E51648001D0668A069012820D006F41C
:1026F0008001E06981421BD106F03F01206A8142DE
:1027000016D147F6C0703040616AB0EB811F0FD11F
:1027100006F440310122A06AC2EB5000B1EB004F39
:1027200006D106F070612C20005DB1EB006F01D086
:102730000120BBE50020B9E5000047420038024017
:102740007047704710B504460CB9012010BD94F8CD
:102750003D0028B9002084F83C00204600F025F810
:10276000022084F83D00211D206800F0B1FB01200B
:1027700084F8460000BF84F83E0001213F20015547
:10278000402001554120015500BF00BF012084F8C1
:10279000420043200155442001554520015500BF0A
:1027A000012084F83D000020D0E77047014691F8F1
:1027B0003D00012801D001207047022081F83D0032
:1027C0000868C06840F001000B68D8601A4B0868C0
:1027D00098421BD00868B0F1804F17D0174B08689B
:1027E000984213D0164B086898420FD0154B0868D2
:1027F00098420BD0144B0868984207D0134B0868D6
:10280000984203D0124B086898420CD1086880683F
:1028100000F00702062A0CD00868006840F00100AA
:102820000B68186005E00868006840F001000B685C
:1028300018600020C0E700000000014000040040D4
:1028400000080040000C004000040140004001402E
:1028500000180040704770B504462068C5682068BD
:10286000066906F00200022819D105F002000228CC
:1028700015D1401F216808610120207720688069F8
:1028800000F0030018B12046FFF7E4FF05E0204602
:1028900000F097F8204600F095F80020207706F029
:1028A0000400042819D105F00400042815D1C04300
:1028B00021680861022020772068806900F4407058
:1028C00018B12046FFF7C6FF05E0204600F079F872
:1028D000204600F077F80020207706F0080008284E
:1028E00019D105F00800082815D1C04321680861F6
:1028F000042020772068C06900F0030018B120464A
:10290000FFF7A8FF05E0204600F05BF8204600F046
:1029100059F80020207706F01000102819D105F092
:102920001000102815D1C0432168086108202077C5
:102930002068C06900F4407018B12046FFF78AFF94
:1029400005E0204600F03DF8204600F03BF800206E
:10295000207706F0010048B105F0010030B16FF0BA
:10296000010021680861204600F02EF806F0800082
:10297000802809D105F08000802805D1C043216856
:1029800008612046FFF7DCFE06F04000402809D130
:1029900005F04000402805D1C04321680861204669
:1029A00000F01EF806F02000202809D105F02000D4
:1029B000202805D1C043216808612046FFF7C1FEE9
:1029C00070BD70477047000010B504460349206889
:1029D000884201D1FFF70AFA10BD00000000014053
:1029E000704700BFFEE700BF00F002F8FCE7000000
:1029F00010B5012210210D48FFF7ECF9002220212B
:102A00000A48FFF7E7F94FF4FA7000F001FC0022E2
:102A100010210648FFF7DEF9012220210348FFF7C5
:102A2000D9F94FF4FA7000F0F3FB10BD000002403A
:102A300000B58BB01D481E49086003204860002186
:102A40001B488160C1604FF4002101614FF44011C7
:102A500041610021017641768176C1760177417727
:102A6000FEF7A4FE08B1FEF75BFB282101A8FDF7E5
:102A700051FD012009900E200A90002006900120AF
:102A80000890002007900190029003900490059018
:102A900001A90748FEF708FC0548FFF756F8022190
:102AA0000348FEF747FB0BB000BD00000064004088
:102AB000B400002000B58BB01C481D4908600320FD
:102AC000486000211A488160C1604FF40021016113
:102AD0004FF4401141610021017641768176C17643
:102AE00001774177FEF762FE08B1FEF719FB282156
:102AF00001A8FDF70FFD012009900E200A90069015
:102B0000012008900020079001900290039004900B
:102B1000059001A90648FEF7C7FB0548FFF715F821
:102B200002210348FEF706FB0BB000BD0068004021
:102B3000DC00002010B50E4A00210E4800F0BEFB5C
:102B40000D4908600D4A00210D4800F0B7FB0D4902
:102B500008600D4A00210D4800F0B0FB0C490860E8
:102B60000C4A00210C4800F0A9FB0C49086010BD7C
:102B700024520008E72900080000002048520008FD
:102B8000552C0008040000206C520008D52D0008C8
:102B90000800002090520008210600080C000020C8
:102BA00000B587B0142102A8FDF7B4FC00BF0020D7
:102BB00001902548006840F08000234908600846DD
:102BC000006800F08000019000BF00BF00BF00203F
:102BD00001900846006840F001000860084600685F
:102BE00000F00100019000BF00BF00BF0020019075
:102BF0000846006840F0020008600846006800F0DF
:102C00000200019000BF00BF00224FF49A710F48EC
:102C1000FFF7E0F8042002900120039000200490C8
:102C2000059002A90948FEF7DBFF4FF49870029067
:102C300001200390022004900020059002A903487F
:102C4000FEF7CEFF07B000BD303802400000024062
:102C500000BFFEE700BFFDF761FE012000F0D8FADB
:102C6000F9E700BFFEE790ED030AD0ED040A30EE6D
:102C7000600A80ED050A90F8241061B3012955D14E
:102C800090ED050AD0ED060A30EE600AD0ED000A9C
:102C900020EE200AD0ED010A90ED051A00EE810A1F
:102CA000D0ED050A90ED061AF0EE001A41EEC10AC9
:102CB00090ED071A70EE810A90ED021A01EE200ADB
:102CC00080ED080A90ED060A80ED070A90ED050AEE
:102CD00080ED060A2BE090ED050AF6EE000A20EEE4
:102CE000200AD0ED070AB6EE001A01EE200A80EDA8
:102CF000070A90ED000AD0ED050A20EE200AD0ED7B
:102D0000010A90ED071A00EE810AD0ED050A90ED58
:102D1000061A70EEC10A90ED021A01EE200A80ED4B
:102D2000080A90ED050A80ED060A00E000BF00BF2A
:102D300090ED080A704700B50246F0EE401A0B46C7
:102D4000C2ED001AC2ED010A82ED021A82F82430A7
:102D5000104600F001F800BD9FED0C0A80ED030A5B
:102D60009FED0A0A80ED040A9FED080A80ED050A2E
:102D70009FED060A80ED060A9FED040A80ED070A22
:102D80009FED020A80ED080A704700000000000075
:102D900070B588B006460C461546182102A8FDF706
:102DA000B9FB0020009001900420049000200590C1
:102DB0000220069003968DF800408DF80150002304
:102DC0006A4602A90248FEF7CAF908B070BD0000C1
:102DD000B400002000BF00F041F9052000F018FA0F
:102DE000F9E710B54FF0E020006901F0BFFF0128BE
:102DF00001D001F009FC10BD00B593B0302107A847
:102E0000FDF788FB142102A8FDF784FB00BF00201A
:102E100001902448006840F080502249086008462C
:102E2000006800F08050019000BF00BF00BF00208C
:102E300001901D48006840F480401B490860084626
:102E4000006800F48040019000BF00BF012007909F
:102E50000004089002200D9041050E9119210F9158
:102E60004FF4A8711091022111910421129107A829
:102E7000FFF718FA08B1FEF753F90F20029002206D
:102E80000390002004904FF4A05005904FF4805020
:102E90000690052102A8FFF7B3F808B1FEF740F944
:102EA00013B000BD40380240007000400348006885
:102EB00040F47000014908607047000088ED00E0B0
:102EC00010B50248FFF7C7FC10BD00000401002048
:102ED00010B502682B4B98420ED0B0F1804F0BD04A
:102EE000294B984208D0294B984205D0284B98424C
:102EF00002D0284B984203D122F070024B681A434B
:102F0000204B984220D0B0F1804F1DD01E4B9842EC
:102F10001AD01E4B984217D01D4B984214D01D4B0F
:102F2000984211D01C4B98420ED01C4B98420BD0AB
:102F30001B4B984208D01B4B984205D01A4B984225
:102F400002D01A4B984203D122F44072CB681A4344
:102F500022F080034C6943EA04028B68C3620B6869
:102F60008362084B984202D00A4B984201D10B6908
:102F70000363036843F004030360012343610260B9
:102F800010BD0000000001400004004000080040A7
:102F9000000C00400004014000400140004401409A
:102FA0000048014000180040001C00400020004084
:102FB00000BFFEE770B505460C46A868042800D09F
:102FC00070BD1F4A6868811A904221D007DC1D49F4
:102FD000084458B1012813D002282CD114E001294B
:102FE0001AD002291FD0FB2925D120E0607816498C
:102FF0000870084602784D211448FFF7C9FE1BE00F
:1030000001201349087017E002201149087013E0ED
:1030100003200F4908700FE060780E490870042003
:103020000B49087008E060780B49087004E005203F
:103030000749087000E000BF00BF00BFC0E7000004
:1030400004050101FFFAFEFE140000200101010544
:1030500015000020160000201700002010B5414880
:10306000007828B900204049887000F099FE10BD12
:1030700002203D4988703D48007806286AD2DFE882
:1030800000F069031C3443533948007810B99FEDB0
:10309000390A01E09FED380A334880ED070A022023
:1030A0003149887000F086FE4B224F213348FFF7EC
:1030B0006FFE0120FDF7DAFA4DE02D48007810B9D7
:1030C0009FED2F0A01E09FED2F0A274880ED070AA8
:1030D0000220254988704B224F212848401CFFF7C9
:1030E00057FE0120FDF7C2FA35E09FED260A1E4883
:1030F00080ED070A02201C4988704B224F211F488F
:10310000801CFFF745FE26E01F48007810B100F054
:1031100051FE01E000F044FE1B480278522117489E
:10312000C01CFFF735FE16E0012080F3138800BFB6
:1031300000BFBFF34F8F1548006800F4E0601449EA
:103140000843001D11490860BFF34F8F00BF00BF47
:1031500000BFFDE700BF00BF00200449087000BFAA
:1031600085E70000140000204C010020150000201D
:10317000170000200000FAC200000FC30201010581
:10318000000048C20000BEC2160000200CED00E0A6
:103190000000FA0502480068C0F3022070470000F2
:1031A0000CED00E010B5002804DB0A07130E054AF9
:1031B000135406E00A07140E034A00F00F031B1F06
:1031C000D45410BD00E400E018ED00E0EFF30580FA
:1031D00070470000FEF716FEFFF70EFEFFF7E0FC5B
:1031E000FFF726FCFFF766FC00F0D6FDFDF744FA7A
:1031F000FDF726FC01200549487000F019F8FFF79B
:1032000099FC00F02BF800BFFEE700004C01002005
:1032100070B50546FFF7DAFF10B16FF0050404E062
:10322000002415B1284601F013F8204670BD0000B7
:1032300010B5FFF7CBFF10B16FF0050409E00648A9
:10324000006820B9012004490860002401E04FF023
:10325000FF34204610BD00008400002070B5FFF749
:10326000B5FF10B16FF005041FE011480068012898
:1032700019D100BF801F0021002804DB0A07130EAC
:103280000C4A135406E00A07150E0B4A00F00F0310
:103290001B1FD55400BF00BF02200549086001F084
:1032A00053F8002401E04FF0FF34204670BD0000C9
:1032B0008400002000E400E018ED00E02DE9FF4765
:1032C00080468946144600200390FFF77FFF0028C0
:1032D0004ED1B8F1000F4BD0802618258246471EEC
:1032E00044B3206808B1D4F800A0A06900B1A56972
:1032F0002DB1382D03D8207900F0010018B100203D
:1033000004B0BDE8F087606908B160698608A0680C
:1033100040B1E0685C2805D3206918B1606908B144
:10332000012708E0A06830B9E06820B9206910B929
:10333000002700E00027012F0CD12169A0684B462F
:103340003246CDE9005102905146404601F0B0FCB2
:1033500003900DE067B903A8B2B24B465146CDE9E0
:103360000050404601F072FC012801D0002003907B
:103370000398C5E72DE9F04105460E461648076853
:1033800016480068001D00F0DBFD681C38B936B136
:1033900012480168091D124800F028FE1AE07C1945
:1033A0000E4800684460BC4207D20C480168091D01
:1033B0000C48006800F000FE0CE008480168091D98
:1033C0000948006800F0F8FD08480068844201D20E
:1033D00006480460BDE8F081480000203400002069
:1033E0000C0A00203C00002038000020640000206F
:1033F00010B5044600F006FE24480068401C23492E
:1034000008602348006840B9214804600846006805
:1034100001280DD100F0FCF90AE01E48006838B917
:103420001B480068C06AE16A884201D818480460F5
:1034300019480068401C1849086008460068606424
:103440001649E06A0968884202D91449E06A0860AE
:10345000E16A01EB8101124A02EB8100211D00F0BB
:10346000C5FD00F0F9FD0B48006868B10848006828
:10347000C06AE16A884207D24FF08050094908606B
:10348000BFF34F8FBFF36F8F10BD000044000020CB
:103490003400002050000020600000204C0000207C
:1034A0005C05002004ED00E008B500F0ABFD12481B
:1034B0000068E8B9114800F06FFD114800F06CFD9C
:1034C0000E48104908600E480F49086000200F4B55
:1034D0000F4A102100900A2001F0B0F80649086058
:1034E0000846006820B10BA10348006800F074FE94
:1034F00000F0B2FD08BD000078000020200A002086
:10350000340A00207000002074000020480A0020C7
:10351000980A0020546D72510000000010B516E0AA
:1035200000F070FD0C48C068C468201D00F008FD64
:103530000A480068401E0949086009480068401EA2
:103540000749086000F088FD204600F05FF8044855
:1035500000680028E4D110BDF809002044000020D4
:103560004000002070B504460D46206C70B1216CFF
:10357000E0680144E160D4E90210884201D3216887
:10358000E1602846226CE168FCF745FF70BD2DE93B
:10359000F04104460F4615464FF00008A66B206C1C
:1035A00048B9206800282CD1A06801F097FC80461B
:1035B0000020A06025E07DB93946226C6068FCF7E8
:1035C0002AFF216C606808446060D4E901018842E8
:1035D00017D32068606014E03946226CE068FCF77D
:1035E0001AFF216CE068411AE1602168E0688842B6
:1035F00003D2216CA068411AE160022D01D106B10D
:10360000761E701CA0634046BDE8F08110B50446EC
:1036100094F8590030B9206B00F03CFD204600F0D2
:1036200039FD1AE094F85900012803D1204600F032
:1036300031FD12E094F85900022801D1012000E088
:10364000002050B900BF502080F31188BFF34F8F86
:10365000BFF36F8F00BF00BFFEE710BD0146084AF1
:10366000126812680AB9012200E000220A600A68A2
:1036700022B9034A1268D268106800E0002070473F
:103680007000002030B54FF47053174800F0070465
:103690002CB1C01D20F00700134C041B1B1B02465D
:1036A000124C22600024114D6C60D018083820F0B4
:1036B00007000F4C206000240D4D2D686C600C4DF0
:1036C0002D682C601146441A4C60094C24680C602B
:1036D000084D4C682C60084D4C682C604FF000443D
:1036E000064D2C6030BD0000F01100208800002045
:1036F000900000209800002094000020A4000020EA
:1037000000BFFFF70BFF064800680128F9D94FF00A
:10371000805004490860BFF34F8FBFF36F8FF0E70D
:103720005C05002004ED00E02DE9F04106460D4661
:1037300017469846069C0DB9246000E02760E663B2
:1037400025640121204600F0E9FF84F84C80BDE8A3
:10375000F0812DE9F05F82460E4690469B460A9F17
:103760000C9C4FEA8801A522206BFCF7CBFEA8F148
:103770000100216B01EB800929F0070909F007001E
:1037800008B9012000E0002050B900BF502080F3AC
:103790001188BFF34F8FBFF36F8F00BF00BFFEE7ED
:1037A00086B1002507E0715D04F134004155705D7C
:1037B00000B902E06D1C102DF5D300BF002143209D
:1037C000015502E0002084F83400382F00D3372759
:1037D000E762E76400202065201D00F0EAFB04F1A9
:1037E000180000F0E6FB2461C7F13800A0616462B4
:1037F0000020606584F858005A465146484600F05B
:1038000089FB20600B9808B10B980460BDE8F09F1D
:1038100010B5002407E004EB84010F4A02EB81009D
:1038200000F0BAFB641C382CF5D30C4800F0B4FB54
:103830000B4800F0B1FB0B4800F0AEFB0A4800F06B
:10384000ABFB0A4800F0A8FB04480949086004489B
:103850000849086010BD00005C050020BC0900207C
:10386000D0090020E4090020F80900200C0A0020FB
:10387000380000203C00002010B50146164800E04A
:10388000006803688B42FBD30246436813448B42B3
:1038900004D143684C682344436001460A464B68A0
:1038A00013440468A34211D10C4C03682468A3425A
:1038B00008D04B680468646823444B6003681B6845
:1038C0000B6005E0054B1B680B6001E003680B60B3
:1038D000884200D0016010BD8800002090000020C8
:1038E0002DE9F04104460D4616461F464FF00008EC
:1038F00065602461B5420CD8F01BA169884202D3EF
:103900004FF0010811E0211D0948006800F054FB48
:103910000BE0BE4204D2BD4202D34FF0010804E0E6
:10392000211D0448006800F047FB4046BDE8F081D7
:10393000740000207000002070B5054600F062FBA6
:10394000A86B08B9012400E0002400F085FB2046A4
:1039500070BD70B5054600F055FBA86BE96B884259
:1039600001D1012400E0002400F076FB204670BD68
:10397000F8B505460F461A480068C068C468201D9F
:1039800000F0DEFA94F8280000F00400E8B1A06925
:1039900041192B463A462046FFF7A2FFD8B1002036
:1039A00003462A4601460090204601F0F3FB0646F6
:1039B00056B900BF502080F31188BFF34F8FBFF37B
:1039C0006F8F00BF00BFFEE705E094F8280020F0ED
:1039D000010084F828002046216A8847F8BD0000CD
:1039E00070000020F0B587B0A0E00398002811DA3D
:1039F00004AE56B900BF502080F31188BFF34F8F3B
:103A0000BFF36F8F00BF00BFFEE7D6E90020B168AB
:103A1000904700BF03980028E6DB059C606908B961
:103A2000012000E0002010B9201D00F089FA02A852
:103A300000F0DEF8054603980A2875D2DFE800F0AA
:103A400009050739416306083A4200BF00BF00BFBD
:103A500000BF94F8280040F0010084F82800049882
:103A6000A269811803462A462046FFF739FFF8B1BC
:103A70002046216A884794F8280000F00400B8B175
:103A8000002000900498A16942180023194620469E
:103A900001F080FB074657B900BF502080F3118822
:103AA000BFF34F8FBFF36F8F00BF00BFFEE700BFB4
:103AB0003BE000BF94F8280020F0010084F82800C3
:103AC00033E000BF94F8280040F0010084F828009B
:103AD0000498A061A06908B1012000E0002050B95D
:103AE00000BF502080F31188BFF34F8FBFF36F8F5B
:103AF00000BF00BFFEE7A06941192B462A462046B9
:103B0000FFF7EEFE11E094F8280000F0020018B96B
:103B1000204600F0BFFA05E094F8280020F00100EC
:103B200084F8280001E0FFE700BF00BF002203A9DE
:103B30000448006800F090FF00287FF456AF07B0FB
:103B4000F0BD000078000020F8B505460C4600F0F6
:103B500057FC684600F04CF80646009820BB44B974
:103B6000B54206D801F058FA31462846FFF700FF63
:103B70001CE03CB10E480068006808B9012000E074
:103B800000200446A91B22460A48006800F03AFBC0
:103B900001F042FA50B94FF0805007490860BFF376
:103BA0004F8FBFF36F8F01E001F036FAF8BD0000D0
:103BB000740000207800002004ED00E00A49096844
:103BC000096809B9012100E0002121B14FF0FF315E
:103BD000064A116006E004490968C968C868034AD2
:103BE0004168116070470000380000206400002028
:103BF00070B5044601F0CAF80546074800688542DA
:103C000004D200F00BF80120206001E000202060C9
:103C100001480560284670BD800000202DE9F8436A
:103C200034E025480068C068056823480068C0681B
:103C3000C468201D00F084F92046216A884794F862
:103C4000280000F0040008B3A0694619AE4207D965
:103C500066602461211D1848006800F0ADF915E088
:103C6000002003462A4601460090204601F092FAC1
:103C7000074657B900BF502080F31188BFF34F8F1C
:103C8000BFF36F8F00BF00BFFEE700BF0A480068A8
:103C9000006808B9012000E000200028C1D00648D3
:103CA000D0F8008005480068034908600348C0F860
:103CB0000080BDE8F8830000700000207400002040
:103CC0000E480068401C08B9012000E0002050B9EF
:103CD00000BF502080F31188BFF34F8FBFF36F8F69
:103CE00000BF00BFFEE700BF502080F31188BFF384
:103CF0004F8FBFF36F8F00BF00BFFEE7A80000200B
:103D000008B500BF6846FFF7A9FC044620460099A5
:103D1000FFF71AFFFFF766FEF4E770B5044600F000
:103D200071F994F9455010E0606A08B9012000E08B
:103D3000002038B904F1240001F022F918B100F094
:103D4000C1FA00E003E0681E45B2002DECDC00BFC4
:103D5000FF2084F8450000F07FF900F053F994F952
:103D6000445010E0206908B9012000E0002048B963
:103D700004F1100001F004F908B100F0A3FA681E84
:103D800045B200E001E0002DECDC00BFFF2084F82C
:103D9000440000F061F970BD10B500F001F810BDED
:103DA00010B5002204210248FEF714F810BD0000EF
:103DB0000000024010B5012204210248FEF70AF873
:103DC00010BD0000000002402DE9F04104464FF014
:103DD000000800F015FB4948006808B9FFF752FCDD
:103DE000474800682040002870D1D4B1083404F05E
:103DF0000700B0B104F00700C0F10800044404F06B
:103E0000070008B9012000E0002050B900BF502091
:103E100080F31188BFF34F8FBFF36F8F00BF00BFD8
:103E2000FEE7002C52D03748006884424ED8364E08
:103E30003046056801E02E462D686868A04202D22F
:103E400028680028F7D12D48006885423ED03068A8
:103E500000F10808286830606868001B102819D92C
:103E60002F1907F0070008B9012000E0002050B921
:103E700000BF502080F31188BFF34F8FBFF36F8FC7
:103E800000BF00BFFEE76868001B78606C603846C2
:103E9000FFF7F2FC1B4968680968081A19490860AD
:103EA0000846006819490968884203D21548006825
:103EB000164908601249686809680843686000206C
:103EC000286013480068401C1149086001F0A4F8FC
:103ED00008F0070008B9012000E0002050B900BF39
:103EE000502080F31188BFF34F8FBFF36F8F00BF57
:103EF00000BFFEE74046BDE8F081000090000020D2
:103F0000A4000020940000208800002098000020D9
:103F10009C000020001F4FF080730360001F21F001
:103F200001030360001F054B036014380260001F8B
:103F30006FF002030360203870470000C13C0008A6
:103F400001460A69D1E901309860D1E9010358605E
:103F50005068884201D1886850600020086110686C
:103F6000401E106010687047034B0360034B0B60EA
:103F70008023136070470000380B0020940B002052
:103F8000034B0360034B0B604FF480731360704767
:103F9000940D0020F00D002000F1080141604FF069
:103FA000FF31816000F10801C16001610021016001
:103FB000704700210161704710B502460B685C1C18
:103FC0000CB9106907E002F1080000E0406844689D
:103FD00024689C42FAD944684C604C68A1608860AF
:103FE00041600A611468641C146010BD42684A6034
:103FF00093688B60936859609160086103685B1CEB
:104000000360704700BF502080F31188BFF34F8FCB
:10401000BFF36F8F00BF0E480068401C0C4908605A
:1040200008460068012812D10A480068C0B208B9E1
:10403000012000E0002050B900BF502080F311881B
:10404000BFF34F8FBFF36F8F00BF00BFFEE7704716
:10405000A800002004ED00E00D48006850B900BF42
:10406000502080F31188BFF34F8FBFF36F8F00BFD5
:1040700000BFFEE706480068401E05490860084684
:10408000006820B9002080F3118800BF00BF70478E
:10409000A800002070B506463546002E44D0083DE5
:1040A0002C46224960680968084008B1012000E0F8
:1040B000002050B900BF502080F31188BFF34F8F0C
:1040C000BFF36F8F00BF00BFFEE7206808B9012073
:1040D00000E0002050B900BF502080F31188BFF3EA
:1040E0004F8FBFF36F8F00BF00BFFEE70F496068BF
:1040F00009680840C0B12068B0B90C496068096817
:104100008843606000F07CF90949606809680844E8
:10411000074908602046FFF7AFFB06480068401CCF
:104120000449086000F078FF70BD0000A400002082
:1041300094000020A000002000204FF0E021086142
:104140008861064800684FF47A71B0FBF1F0401EB8
:104150004FF0E021486107200861704730000020DF
:1041600070B5FCF7BDF80446102C16D304F1E0201E
:1041700090F8F05315480078854201DB012000E0FB
:10418000002050B900BF502080F31188BFF34F8F3B
:10419000BFF36F8F00BF00BFFEE70D48006800F45B
:1041A000E0600C490968884201D8012000E0002045
:1041B00050B900BF502080F31188BFF34F8FBFF379
:1041C0006F8F00BF00BFFEE770BD0000AC00002095
:1041D0000CED00E0B0000020024600200BE0084B90
:1041E00053F8303033B9064B43F8301003EBC003BB
:1041F0005A6002E0401C0828F1D300BF704700005D
:104200001C0500202DE9F04105460E4617462C46B8
:10421000FFF7F8FE94F94400401C10B9002084F820
:10422000440094F94500401C10B9002084F8450072
:10423000FFF712FFA06B28B93A46314604F124007B
:1042400000F062F82046FFF768FDBDE8F08100004D
:1042500070B504460025D4B11248006808B90120A1
:1042600000E0002050B900BF502080F31188BFF358
:104270004F8FBFF36F8F00BF00BFFEE700F0C0F8A5
:1042800000212046FFF776F800F0C6FE05463DB94E
:104290004FF0805004490860BFF34F8FBFF36F8F1A
:1042A00070BD00006C00002004ED00E003490968C7
:1042B0000160034909684160704700005C0000200C
:1042C0004800002001200149086070475800002084
:1042D00070B504460D4654B900BF502080F31188D4
:1042E000BFF34F8FBFF36F8F00BF00BFFEE70548DE
:1042F000016818312046FFF75FFE01212846FFF7CD
:1043000039F870BD3400002070B505460E461446DD
:1043100055B900BF502080F31188BFF34F8FBFF312
:104320006F8F00BF00BFFEE70648016818312846BE
:10433000FFF75CFE0CB14FF0FF3621463046FFF729
:1043400019F870BD3400002010B586B0002005902B
:10435000049003AA04A905A8FFF706FE0022DDE9E0
:1043600004101346CDE9002102901EA11F48039AB4
:1043700000F09EFC1E4908600846006808B1012450
:1043800000E00024012C02D100F0C8FE0446012CFC
:1043900015D100BF502080F31188BFF34F8FBFF3BA
:1043A0006F8F00BF4FF0FF301249086001201249A3
:1043B000086000201149086000F072F810E0601CED
:1043C00008B1012000E0002050B900BF502080F368
:1043D0001188BFF34F8FBFF36F8F00BF00BFFEE7A1
:1043E00006B010BD49444C450000000001370008EC
:1043F00068000020640000205000002048000020D9
:1044000002480068401C0149086070476C000020A9
:104410001E48006818B101201D49086034E00020E2
:104420001B4908601B4801680CE051B900BF5020CF
:1044300080F31188BFF34F8FBFF36F8F00BF00BFB2
:10444000FEE7491E01EB8100134A52F8200008B92B
:10445000012000E000200028E7D101EB81020E4B93
:1044600003EB820042685268426000F10802436830
:10447000934202D14268526842604268D268074B58
:104480001A600448016000BF704700006C00002003
:10449000580000204C0000205C0500203400002063
:1044A0001CB5524800685249884201D0012000E002
:1044B000002050B900BF502080F31188BFF34F8F08
:1044C000BFF36F8F00BF00BFFEE748480068484950
:1044D000491E884201D0012000E0002050B900BFF1
:1044E000502080F31188BFF34F8FBFF36F8F00BF51
:1044F00000BFFEE73F49084600780190FF200A46CA
:1045000010700846007800909DF8000000F0F00060
:104510009DF80020904201D1012000E0002050B918
:1045200000BF502080F31188BFF34F8FBFF36F8F10
:1045300000BF00BFFEE79DF8000000F050002E4ACB
:10454000107007202D4A106009E02C480068401EBA
:104550002A4A10609DF800004006000E00909DF869
:10456000000000F080008028EFD024480068C0F1EF
:104570000700042801D1012000E0002050B900BF4D
:10458000502080F31188BFF34F8FBFF36F8F00BFB0
:1045900000BFFEE7194800680002184A1060104684
:1045A000008800F4E0601060124A019810700F4813
:1045B0002030006840F470000C4920310860084643
:1045C000006840F070400860FFF7B6FD00200C491D
:1045D0000860FBF74DFE0B48006840F04040094979
:1045E0000860FBF731FE00201CBD000000ED00E07C
:1045F00071C20F4100E400E0AC000020B0000020D8
:10460000A800002034EF00E010B500BF502080F378
:104610001188BFF34F8FBFF36F8F00BF00F0BCFB5B
:1046200018B14FF080500449086000BF002080F3AB
:10463000118800BF10BD000004ED00E02DE9F84333
:1046400080460E4617461D46DDF82090B8F1000F53
:1046500001D0012000E0002050B900BF502080F3BD
:104660001188BFF34F8FBFF36F8F00BF00BFFEE70E
:104670000DB1012000E0002050B900BF502080F3B0
:104680001188BFF34F8FBFF36F8F00BF00BFFEE7EE
:1046900007B10EB1012000E0002050B900BF50204A
:1046A00080F31188BFF34F8FBFF36F8F00BF00BF40
:1046B000FEE707B90EB9012000E0002050B900BFA5
:1046C000502080F31188BFF34F8FBFF36F8F00BF6F
:1046D00000BFFEE7502000900098502801D1012033
:1046E00000E0002050B900BF502080F31188BFF3D4
:1046F0004F8FBFF36F8F00BF00BFFEE700BF2C4698
:104700004CB1012084F846004B463A4631464046BB
:104710000094FFF709F82046BDE8F88370B5054618
:104720000E462C4654B900BF502080F31188BFF3C9
:104730004F8FBFF36F8F00BF00BFFEE7FFF762FC34
:10474000D4E90F12206801FB0200A0600020A063E2
:1047500020686060E06B401E226C216800FB021143
:10476000E160FF2084F8440084F845009EB9206988
:1047700008B9012000E00020A8B904F1100000F001
:10478000FFFB80B14FF0805009490860BFF34F8FA5
:10479000BFF36F8F07E004F11000FFF7FDFB04F19A
:1047A0002400FFF7F9FBFFF757FC012070BD000064
:1047B00004ED00E02DE9FF4383B0064688461D4620
:1047C0004FF00009344654B900BF502080F31188DF
:1047D000BFF34F8FBFF36F8F00BF00BFFEE7B8F18D
:1047E000000F01D1206C08B9012000E0002050B971
:1047F00000BF502080F31188BFF34F8FBFF36F8F3E
:1048000000BF00BFFEE7022D02D1E06B012801D1FD
:10481000012000E0002050B900BF502080F3118833
:10482000BFF34F8FBFF36F8F00BF00BFFEE700F0F5
:104830009DFA08B9059808B9012000E0002050B998
:1048400000BF502080F31188BFF34F8FBFF36F8FED
:1048500000BF00BFFEE700BFFFF7D4FBA06BE16B1A
:10486000884201D3022D28D12A4641462046FEF730
:104870008EFE0746606A08B9012000E0002068B992
:1048800004F1240000F07CFB88B14FF080503249E5
:104890000860BFF34F8FBFF36F8F08E03FB14FF059
:1048A00080502D490860BFF34F8FBFF36F8FFFF724
:1048B000D3FB012007B0BDE8F083059818B9FFF7D6
:1048C000CBFB0020F6E7B9F1000F04D101A8FFF7F8
:1048D000EDFC4FF00109FFF7BFFBFFF791FDFFF77C
:1048E00091FB94F94400401C10B9002084F8440066
:1048F00094F94500401C10B9002084F84500FFF7EA
:10490000ABFB05A901A800F05BF9F0B92046FFF761
:1049100020F8A0B104F110000599FFF7D9FC20465A
:10492000FFF7FBF900F078FB002895D14FF080509D
:1049300009490860BFF34F8FBFF36F8F8CE72046A4
:10494000FFF7EBF900F068FB86E72046FFF7E5F993
:1049500000F062FB0020ADE704ED00E02DE9F84F28
:1049600007468A4690461E463C4654B900BF502032
:1049700080F31188BFF34F8FBFF36F8F00BF00BF6D
:10498000FEE7BAF1000F01D1206C08B9012000E068
:10499000002050B900BF502080F31188BFF34F8F23
:1049A000BFF36F8F00BF00BFFEE7022E02D1E06BA6
:1049B000012801D1012000E0002050B900BF5020A3
:1049C00080F31188BFF34F8FBFF36F8F00BF00BF1D
:1049D000FEE7FFF7C5FB00BF5021EFF3118081F325
:1049E0001188BFF34F8FBFF36F8F00BF0546A06BD9
:1049F000E16B884201D3022E25D194F945B0A06B1A
:104A00000090324651462046FEF7C1FD0BF10100F1
:104A100088B9606A08B9012000E0002050B904F1AB
:104A2000240000F0ADFA28B1B8F1000F02D0012047
:104A3000C8F8000004E00BF1010040B284F8450022
:104A40004FF0010901E04FF0000900BF85F3118824
:104A500000BF4846BDE8F88F2DE9F74183B0054611
:104A60000E464FF000082C4654B900BF502080F38A
:104A70001188BFF34F8FBFF36F8F00BF00BFFEE7FA
:104A80000EB9206C08B9012000E0002050B900BF29
:104A9000502080F31188BFF34F8FBFF36F8F00BF9B
:104AA00000BFFEE700F062F908B9059808B90120D7
:104AB00000E0002050B900BF502080F31188BFF300
:104AC0004F8FBFF36F8F00BF00BFFEE700BFFFF740
:104AD00099FAA76BF7B131462046FEF743FD781EE1
:104AE000A063206908B9012000E0002060B904F14A
:104AF000100000F045FA38B14FF080502F4908609F
:104B0000BFF34F8FBFF36F8FFFF7A6FA012006B0F8
:104B1000BDE8F081059818B9FFF79EFA0020F6E786
:104B2000B8F1000F04D101A8FFF7C0FB4FF0010856
:104B3000FFF792FAFFF764FCFFF764FA94F9440078
:104B4000401C10B9002084F8440094F94500401C32
:104B500010B9002084F84500FFF77EFA05A901A8E6
:104B600000F02EF8F0B92046FEF7E6FEA0B104F101
:104B700024000599FFF7ACFB2046FFF7CEF800F0C4
:104B80004BFA0028A3D14FF080500C490860BFF3C6
:104B90004F8FBFF36F8F9AE72046FFF7BEF800F004
:104BA0003BFA94E72046FFF7B8F800F035FA2046C4
:104BB000FEF7C2FE00288AD00020A8E704ED00E03E
:104BC00070B505460C4655B900BF502080F31188DA
:104BD000BFF34F8FBFF36F8F00BF00BFFEE754B925
:104BE00000BF502080F31188BFF34F8FBFF36F8F4A
:104BF00000BF00BFFEE7FFF705FA124802686868C9
:104C0000131A2068401C08B9002617E00E492868CE
:104C10000968884204D06868904201D801260DE0F6
:104C20002068984207D92068C01A20602846FFF7FC
:104C30003DFB002602E0002020600126FFF70CFA71
:104C4000304670BD480000205C0000202DE9FF4F79
:104C500085B0804689461746DDE912ABB800FFF7FC
:104C6000B3F8064656B15C20FFF7AEF804460CB127
:104C7000266304E03046FFF70DFA00E000248CB113
:104C8000002084F85900CDE900ABCDE902403A4656
:104C900049464046089BFEF75CFD2046FEF7A8FB10
:104CA000012501E04FF0FF35284609B0BDE8F08F3F
:104CB0002DE9F04F85B00746884691469A46DDE9D2
:104CC0000EB6109C0EB1012000E0002050B900BFCC
:104CD000502080F31188BFF34F8FBFF36F8F00BF59
:104CE00000BFFEE70CB1012000E0002050B900BF7A
:104CF000502080F31188BFF34F8FBFF36F8F00BF39
:104D000000BFFEE75C20039003985C2801D10120DE
:104D100000E0002050B900BF502080F31188BFF39D
:104D20004F8FBFF36F8F00BF00BFFEE700BFB4B16E
:104D3000AEB125462C462E63022085F8590000208E
:104D400004A953464A46CDE900B1CDE90250414697
:104D50003846FEF7FEFC2846FEF74AFB01E000203D
:104D60000490049805B0BDE8F08F0000054909687B
:104D700009B9012005E00449096809B9022000E0E9
:104D800000207047500000206C0000200149086896
:104D900070470000480000202DE9F0414FF0000866
:104DA0004348006800287BD142480068451C4148C0
:104DB000056015BB40480068006808B9012000E0A4
:104DC000002050B900BF502080F31188BFF34F8FEF
:104DD000BFF36F8F00BF00BFFEE737480768374853
:104DE0000068354908603548076035480068401C50
:104DF00033490860FEF7E2FE00BF32480068854292
:104E00003BD300BF2C480068006808B9012000E0CF
:104E1000002020B14FF0FF302A4908602CE02648DE
:104E20000068C068C4686668B54202D2254806605A
:104E300022E0201DFFF784F8A06A18B104F11800E1
:104E4000FFF77EF82049E06A0968884202D91E49C6
:104E5000E06A0860E16A01EB81011C4A02EB810013
:104E6000211DFFF7C3F81A49E06A0968C96A884238
:104E7000C8D34FF00108C5E700BF15480068C06AF5
:104E800000EB8000114951F82000012801D94FF0B2
:104E900001081048006808B14FF0010805E0FFE77D
:104EA0000D480068401C0C4908604046BDE8F08190
:104EB0006C00002048000020380000203C0000204A
:104EC0005C000020640000204C0000205C050020F5
:104ED00034000020580000205400002070B5054622
:104EE0002C460026002D43D022480068844201D180
:104EF000012000E0002050B900BF502080F311884D
:104F0000BFF34F8FBFF36F8F00BF00BFFEE7206D71
:104F100050B900BF502080F31188BFF34F8FBFF30B
:104F20006F8F00BF00BFFEE7206D401E2065E16C63
:104F3000E06A88421CD0206DD0B9201DFFF700F830
:104F4000E06CE062E06AC0F13800A0610A49E06A02
:104F50000968884202D90849E06A0860E16A01EB01
:104F60008101064A02EB8100211DFFF73FF801266F
:104F7000304670BD340000204C0000205C0500204D
:104F800070B50646F068C46854B900BF502080F37D
:104F90001188BFF34F8FBFF36F8F00BF00BFFEE7D5
:104FA00004F11800FEF7CCFF15480068A0B9201DD9
:104FB000FEF7C6FF1349E06A0968884202D9114921
:104FC000E06A0860E16A01EB81010F4A02EB8100AF
:104FD000211DFFF70BF804E004F118010B48FFF75F
:104FE00005F80B49E06A0968C96A884204D90125B5
:104FF00001200849086000E00025284670BD000037
:105000006C0000204C0000205C050020E40900201A
:10501000340000205800002070B5002400263648D7
:10502000006850B900BF502080F31188BFF34F8F44
:10503000BFF36F8F00BF00BFFEE7FEF7E3FF2E4810
:105040000068401E2C4908600846006800284ED1C0
:105050002A48006800284AD023E02948C068C4686C
:1050600004F11800FEF76CFF201DFEF769FF2549CB
:10507000E06A0968884202D92249E06A0860E16A68
:1050800001EB8101204A02EB8100211DFEF7AEFFFA
:105090001E49E06A0968C96A884202D301201C4996
:1050A00008601748006808B9012000E000200028C7
:1050B000D3D00CB1FEF782FD1648056865B100BF7C
:1050C000FFF76AFE10B10120114908606D1E002D26
:1050D000F6D100200F4908600D48006838B101265C
:1050E00030070D490860BFF34F8FBFF36F8FFEF796
:1050F000B3FF304670BD00006C000020440000206B
:10510000E40900204C0000205C0500203400002051
:10511000580000205400002004ED00E010B586B0D7
:105120000024FEF7C1F916480068D0B100200590B0
:10513000049003AA04A905A8FEF722FF0222DDE9D4
:1051400004100023CDE9002102900EA10F48039A1C
:10515000FFF7AEFD0E4908600846006800B1012463
:1051600000BF54B900BF502080F31188BFF34F8FA8
:10517000BFF36F8F00BF00BFFEE7204606B010BD33
:1051800078000020546D722053766300013D0008C2
:105190007C0000202DE9FF4704460D4616461F46B9
:1051A000DDF830804FF0000954B900BF502080F383
:1051B0001188BFF34F8FBFF36F8F00BF00BFFEE7B3
:1051C0001448006810B3009501960294062D15DA74
:1051D000FFF7CCFD022808D10023424669460D485E
:1051E0000068FFF7E7FA814610E000231A46694697
:1051F00008480068FFF7DEFA814607E000233A46D8
:10520000694604480068FFF7A9FB8146484604B098
:10521000BDE8F087780000204FF04070E1EE100A02
:1052200070470000D8520008000000000000000095
:105230000000000000000000000400001800000052
:105240000000000000000000EC5200080000000018
:10525000000000000000000000000000000400004A
:10526000080000000000000000000000CC52000810
:10527000000000000000000000000000000000002E
:105280000004000008000000000000000000000012
:10529000E0520008000000000000000000000000D4
:1052A00000000000000400000800000000000000F2
:1052B00000000000000000000000000001020304E4
:1052C000060708090000000001020304537461741A
:1052D000656D6163000000004C65647461736B0070
:1052E000426565707461736B000000004D6F746FF0
:1052F000727461736B0000001853000800000020F6
:10530000B4000000C4010008CC530008B400002021
:105310009C590000E00100080000000000000000AF
:10532000000000000000000000000000000000007D
:10533000000000000000000000000000000000006D
:1053400010000000010000000024F4000000000034
:10535000000000000000000000000000000000004D
:10536000000000000000000000000000000000003D
:10537000000000000000000000000000000000002D
:10538000000000000000000000000000000000001D
:10539000000000000000000000000000000000000D
:1053A00000000000000000000000000000000000FD
:1053B00000000000000000000000000000000000ED
:0C53C000AAAAAAAA000000000000000039
:040000050800018965
:00000001FF
